:020000040001F9
:108000007FB5054600200090019002900390002467
:108010001021104802F0BDF90E48056001460E48D7
:1080200006F020FE0D4A07CA8DE8070000BF094888
:10803000005D1DF80410484006490855601CC0B298
:1080400004461028F3DB044806F00CFE014804B097
:1080500070BD00005031FE1F8030FE1F50040140F3
:020000040001F9
:10A000004875FF1F99A201005D1903001B9502000E
:10A010007D180300E9F2010065F403000000000070
:10A020000000000000000000000000008594030014
:10A030002D480200000000004129030065AF030025
:10A0400031AA020041AA020051AA020061AA02003C
:10A0500071AA020081AA020091AA0200A1AA02002C
:10A06000B1AA0200C1AA0200D1AA0200E1AA02001C
:10A07000F1AA020001AB020011AB020021AB020009
:10A0800031AB020041AB020051AB020061AB0200F8
:10A0900071AB020081AB020091AB0200A1AB0200E8
:10A0A000B1AB0200C1AB0200D1AB0200E1AB0200D8
:10A0B000F1AB020001AC020011AC020021AC0200C5
:10A0C00031AC020041AC020051AC020061AC0200B4
:10A0D00071AC020081AC020091AC0200A1AC0200A4
:10A0E000B1AC0200C1AC0200D1AC0200E1AC020094
:10A0F000F1AC020001AD020011AD020021AD020081
:10A1000031AD020041AD020051AD020061AD02006F
:10A1100071AD020081AD020091AD0200A1AD02005F
:10A12000B1AD0200C1AD0200D1AD0200E1AD02004F
:10A13000F1AD020001AE020011AE020021AE02003C
:10A1400031AE020041AE020051AE020061AE02002B
:10A1500071AE020081AE020091AE0200A1AE02001B
:10A16000B1AE0200C1AE0200D1AE0200E1AE02000B
:10A17000F1AE020001AF020011AF020021AF0200F8
:10A1800031AF020041AF020051AF020061AF0200E7
:10A1900071AF020081AF020091AF0200A1AF0200D7
:10A1A000B1AF0200C1AF0200D1AF0200E1AF0200C7
:10A1B000F1AF020001B0020011B0020021B00200B4
:10A1C00031B0020041B0020051B0020061B00200A3
:10A1D00071B0020081B0020091B00200A1B0020093
:10A1E000B1B00200C1B00200D1B00200E1B0020083
:10A1F000F1B0020001B1020011B1020021B1020070
:10A2000031B1020041B1020051B1020061B102005E
:10A2100071B1020081B1020091B10200A1B102004E
:10A22000B1B10200C1B10200D1B10200E1B102003E
:10A23000F1B1020001B2020011B2020021B202002B
:10A2400031B2020081B302006DB8020021BD0200EC
:10A2500079C0020021C40200A9C70200E5C90200BA
:10A26000F5CD020005D2020045D50200CDDA02008C
:10A27000B1DF02003DE30200B1E602004DE9020059
:10A28000DFF810D000F086FC0048004771E80100BC
:10A29000AFF300804875FF1F064880470648004717
:10A2A000FEE7FEE7FEE7FEE7FEE7FEE7FEE7FEE786
:10A2B000FEE7FEE7FDB0030081A201002DE9F05F9B
:10A2C0000546002092469B46884606468146402425
:10A2D0001BE0284641464746224600F0F5FA534621
:10A2E0005A46C01A914110D311461846224600F032
:10A2F000DCFA2D1A67EB01084F46224601200021A7
:10A3000000F0D3FA17EB00094E41201EA4F101041E
:10A31000DFDC484631462A464346BDE8F09F000050
:10A320000649074A0868504343F23902104408605E
:10A330004008704701490860704700004C0BFE1F41
:10A340006D4EC64110B5431A934209D2831888183E
:10A3500003E010F8011D03F8011D521EF9D210BDD3
:10A3600040EA01039B0703D009E008C9121F08C097
:10A37000042AFAD203E011F8013B00F8013B521E17
:10A38000F9D210BDD2B201E000F8012B491EFBD278
:10A3900070470022F6E710B513460A4604461946F0
:10A3A000FFF7F0FF204610BD10B5044604E00B781F
:10A3B00000F8013B03B1491C521EF8D2204610BDE3
:10A3C000CAB2401E10F8011F8A4202D00029F9D1FA
:10A3D00000207047421C10F8011B0029FBD1801A95
:10A3E000704730B504460020034600E05B1C9342F2
:10A3F00003D2E05CCD5C401BF8D030BD034611F8C1
:10A40000012B00F8012B002AF9D11846704730B50E
:10A4100003461D783DB10A4612F8014B1CB1AC420F
:10A42000FAD15B1CF5E7181A30BD30B5054600209F
:10A4300008E00A4602E0A34207D0521C1378002B22
:10A44000F9D1401C2C5C002CF3D130BD2DE9FE4F1E
:10A45000804681EA0300C00F0C46009021F00041C5
:10A4600023F00045B8EB0200A94105D24046214641
:10A4700090461C460B46024623F00040104347D04E
:10A48000270DC7F30A00C3F30A510290401A019046
:10A4900040286BDAC3F3130040F4801B0098924607
:10A4A00020B10023D2EB030A63EB0B0B0198594652
:10A4B000C0F14002504600F0F8F906460D465046FD
:10A4C0005946019A00F010FA10EB0800614100248F
:10A4D00087EA115284EAE7731A4340D0009A62B3C4
:10A4E000019A012A4FEA075215DC001B61EB0201B9
:10A4F0004FF0004202EA0752CDE90042001C41F54C
:10A50000801132462B4600F047FA03B0BDE8F08FC9
:10A5100040462146F9E7001B61EB0201001C41F5B2
:10A52000801300185B412018A2F5001747EB0301C8
:10A5300040EAD570B6196D4111E06D084FEA360654
:10A5400045EAC0754FEA0752001B61EB0201001C8F
:10A5500041F5801149084FEA300000195141324657
:10A560002B4603B0BDE8F04F00F007BA0098012277
:10A5700040000023D0EB020263EBE0730098214619
:10A580004FEAE074B8EB000061EB0401E9E783F007
:10A5900000435BE781F0004158E72DE9FE4F81EA77
:10A5A000030404F0004421F0004100944FF0000B3C
:10A5B00023F0004350EA01045ED052EA03045BD06A
:10A5C000C3F30A54C1F30A552C44A4F2F3340194A2
:10A5D000A0FB0254C1F3130141F48011C3F3130330
:10A5E00043F4801301FB024400FB034E840A970AE4
:10A5F00044EA815447EA8357A4FB076802958D0A11
:10A6000005FB07854FEA932C04FB0C542705029D9C
:10A610004FEA065847EA1637B5EB08056EEB070C0C
:10A62000870E920E47EA811742EA8312A7FB0201C6
:10A63000B6EB0B0164EB00042B0D43EA0C335E1800
:10A6400044EB1C50DA465146E7FB0201C5F3130404
:10A650004FEA0B3343EA14534FEA0432019C43EAB6
:10A660000603A4F10C040294009CCDE900B400F0B0
:10A6700093F903B0BDE8F08F00200146F9E72DE91A
:10A68000F04D81EA030404F0004B21F0004514462C
:10A690004FF0000A23F0004150EA050220D054EAAE
:10A6A00001021DD0C5F30A570246C5F31303C1F3D7
:10A6B0001300C1F30A5640F4801543F48013A7EB4E
:10A6C0000608101BD64608F2FD3873EB050002D3CE
:10A6D00008F1010801E092185B41B8F1000F03DABC
:10A6E00000200146BDE8F08D00204FF480110646A1
:10A6F00084460EE0171B73EB050705D3121B63EBB3
:10A70000050306434CEA010C49084FEA3000921851
:10A710005B4150EA0107EDD152EA030012D082EA10
:10A72000040083EA0501084305D0101BAB4106D2A3
:10A730000122002306E000224FF0004302E06FF008
:10A74000010253101AEB06004CEB085110EB0A0003
:10A7500041EB0B01BDE8F04D00F00FB90EB5C10F94
:10A7600080EAE0700844CA07002140F233438DE8D4
:10A770000E000A460B4600F00FF903B000BD0EB5FF
:10A7800040F2334102910021CDE900110A460B4607
:10A7900000F002F903B000BD0EB540F23342029260
:10A7A0000022CDE90022134600F0F6F803B000BD08
:10A7B00070B5C1F30A5201F000450024C1F3130142
:10A7C00040F2FF3341F480119A4201DA002070BD5B
:10A7D00040F233439A42A2F2334203DC524200F089
:10A7E00073F800E090402C43F1D0404270BDC1F3BB
:10A7F0000A5210B5C1F3130140F2FF3341F4801146
:10A800009A4201DA002010BD40F233439A42A2F28C
:10A81000334203DC524200F057F810BD904010BDA7
:10A8200000F0004230F000400AD0C10D01F5607127
:10A83000C0F3160042EA0151C208400711437047B5
:10A8400000200146704701F0004330B421F0004180
:10A8500050EA010206D00A0DA2F56072C1F313019D
:10A86000002A02DC30BC00207047440F44EAC104D7
:10A87000C100E01830BC00EBC25000F047B830B562
:10A880000B46014600202022012409E021FA02F5AE
:10A890009D4205D303FA02F5491B04FA02F5284448
:10A8A000151EA2F10102F1DC30BD202A04DB203AA2
:10A8B00000FA02F1002070479140C2F1200320FA13
:10A8C00003F3194390407047202A04DB203A21FA11
:10A8D00002F00021704721FA02F3D040C2F12002B9
:10A8E0009140084319467047202A06DBCB17203ACF
:10A8F00041FA02F043EAE07306E041FA02F3D04085
:10A90000C2F1200291400843194670470029A8BFB0
:10A910007047401C490008BF20F00100704710B488
:10A92000B0FA80FC00FA0CF050EA010404BF10BC3D
:10A93000704749B1CCF1200421FA04F411FA0CF16A
:10A9400018BF012121430843A3EB0C01CB1D4FEAA3
:10A9500000614FEA102042BF002010BC704700EB9E
:10A96000C35010440029A4BF10BC7047401C4900CC
:10A9700008BF20F0010010BC704710B5141E73F121
:10A98000000408DA401C41F1000192185B411A43AF
:10A9900001D120F0010010BD2DE9F04D92469B46FB
:10A9A00011B1B1FA81F202E0B0FA80F220329046A1
:10A9B000FFF77BFF04460F4640EA0A0041EA0B011D
:10A9C00053465A46084313D0114653EA010019D0A2
:10A9D000C8F140025046FFF777FF05460E46504645
:10A9E00059464246FFF761FF084305D0012004E0C5
:10A9F00020463946BDE8F08D0020054346EAE07662
:10AA00002C4337430A986305E40AA0EB08000022B0
:10AA1000FD0A44EA47540A3002D500200146E9E71E
:10AA2000010510196941DDE9084500196941BDE8D2
:10AA3000F04DA2E770B521F0004303430CD0C1F301
:10AA40000A550024D5EB040564EB0403D617AD1AB0
:10AA5000B34102DB0020014670BD201841EB0251DA
:10AA600070BD2DE9F04D00231A461B1A8A4103DB05
:10AA700000200146BDE8F08DC1F30A52C1F3130175
:10AA800041F480154FF0000BD10702D100186D4141
:10AA9000521E0027044640F2FF11384601EB620ABD
:10AAA0003E468046024600204FF48011FFF70CFF1F
:10AAB000C2197141BB1846EB0100B4EB030C75EBF6
:10AAC000000C04D3E41A65EB000517460E46241962
:10AAD00008F101006D4180463428E3DDF91946EBA9
:10AAE0000600091BA84103D24FF0FF32134601E0D4
:10AAF000002213461BEB070046EB0A51BDE8F04D60
:10AB0000FFF73BBFC1F30A52C1F3130140F2FF3319
:10AB100041F480119A4202DA00200146704740F267
:10AB200033439A42A2F2334202DC5242FFF7CCBED8
:10AB3000FFF7BBBE30B5041E71F1000404DB4FF01B
:10AB40000044404264EB0101141E73F1000405DB74
:10AB50001C464FF00043524263EB04038B4208BF94
:10AB6000824230BD30B5041E71F1000404DB4FF0A9
:10AB70000044404264EB0101141E73F1000405DB44
:10AB80001C464FF00043524263EB0403994208BF56
:10AB9000904230BD064C074D06E0E06840F00103EE
:10ABA00094E8070098471034AC42F6D3FFF76CFBEB
:10ABB00078EE040098EE040070B58C1810F8015B74
:10ABC00015F0070301D110F8013B2A1106D110F846
:10ABD000012B03E010F8016B01F8016B5B1EF9D14A
:10ABE0002B0705D40023521E0DD401F8013BFAE7D0
:10ABF00010F8013BCB1A921C03E013F8015B01F83B
:10AC0000015B521EF9D5A142D8D3002070BD0000CF
:10AC1000B0B52DED028B054690F8240010B31C460C
:10AC2000B0EE408A022823D001282DD195ED050AE7
:10AC300095ED082A95ED041AB8EE400A95F8B10191
:10AC400062EE000AB0EE480A00F05EFF002C85EDCF
:10AC50006B0A18BF84ED000A002460B2BDEC028BC1
:10AC6000B0BD00BFFF2460B2BDEC028BB0BD00BF21
:10AC70002846B0EE480A00222346002403F096F945
:10AC800060B2BDEC028BB0BD05F5D27305F5D47290
:10AC90000846B0EE600A194600F024F895F8240042
:10ACA00003280DD0052817D12846B0EE480A002108
:10ACB0002246002400F04EF960B2BDEC028BB0BD1C
:10ACC0002846B0EE480A00212246002402F06EFC1D
:10ACD00060B2BDEC028BB0BD002460B2BDEC028B53
:10ACE000B0BD00002DE9F04381B02DED108B42F294
:10ACF0001073984238BF0346B3F5C86F98BF4FF43E
:10AD0000C863A3F5C86080B2400841F27B4700FBEE
:10AD100007F658087843400C322700FB1733700CB5
:10AD20009BB201EE103A4EF2255300EB8007C0F2C1
:10AD3000040353F8175003EB470703EE105AD7F8F4
:10AD40000A50B8EE411A02EE105A32EE434A9FED15
:10AD5000802A24EE014A84EE024A89460121B5EE9A
:10AD6000400A9046B0EE408A01EB5641F1EE10FAEF
:10AD700033EE040A1AD101EB810103EB410178683B
:10AD8000496803EE100A04EE101A34EE434A24EE2A
:10AD9000011A81EE021A89ED000A33EE010A88EDEC
:10ADA000000ABDEC108B01B0BDE8F08301EB81021D
:10ADB00003EB42027B68526803EE103A04EE102A5D
:10ADC00034EE434A24EE014A84EE024A4EF6D4326F
:10ADD000C0F2040202EB800090ED005A02EB810009
:10ADE00090ED006AB2EE08AA36EE456A26EE011A28
:10ADF000B0EE089A81EE021A30EE007AB1EE08BA8F
:10AE000033EE043A23EE0A4A34EE094A34EE472A76
:10AE100023EE0B3A83EE023AB1EE004A20EE040A2A
:10AE200080EE020AB7EE00FA35EE01EA2EEE0E1AB7
:10AE300071EE0F8A83EE28CA21EE031A81EE28DA1A
:10AE40002EEE000A30EE430A3CEE000A3DEE000A08
:10AE500010EE100AFFF7E4FC2EEE080A044610EE8E
:10AE6000100A0D46FFF7DCFC8FEE280A07460E4657
:10AE700010EE100AFFF7D4FC41EC180BB0EE480AB4
:10AE8000F0EE680A26F010FA53EC102B38463146E3
:10AE9000FFF783FB02460B4620462946FFF777FB68
:10AEA00004461EEE100A0D46FFF7BAFC02460B469A
:10AEB00020462946FFF7E3FBFFF7C5FC3CEE0D0AF1
:10AEC0000EEE100A10EE100AFFF7AAFCB0EE480AC8
:10AED000F0EE680A04460D4626F0E6F953EC102B16
:10AEE00038463146FFF759FB22462B46FFF74FFB0A
:10AEF000FFF7A9FC00EE100ABFEE082A20EE020AB6
:10AF0000BBEE002A20EE022A2EEE0B3AB2EE021A17
:10AF100033EE022A2EEE011A32EE0A2ABAEE003A77
:10AF200081EE021A30EE002A20EE030A2EEE093AD4
:10AF300033EE000A30EE0B0A82EE000A89ED001AA9
:10AF400088ED000ABDEC108B01B0BDE8F08300BFB6
:10AF5000000048422DE9F04F81B02DED088B8EB0F6
:10AF600050B39FED198AB5EE400AB7EE00AAF1EE94
:10AF700010FAB0EE481AB4EE4A0AB0EE4A9AC8BFC8
:10AF8000B0EE401AF1EE10FAD8BFB0EE419AB5EE2D
:10AF9000409A8346F1EE10FA1AD10020CBF8AC01AA
:10AFA00022B1C2E90000C2E9020010610EB0BDEC9E
:10AFB000088B01B0BDE8F08F01200EB0BDEC088B0E
:10AFC00001B0BDE8F08F00BF0000000017B7D13816
:10AFD0009BED690A1FED03BA0192B4EE4B0AF1EE44
:10AFE00010FAB8BFB0EE4B0A9BED6A1A8BED690AF6
:10AFF000B4EE4B1AF1EE10FAB8BFB0EE4B1ADBF814
:10B000001400DBE90E1200EB40008BED6A1A01EE32
:10B01000100ACBE91812DBE92101DBE95A23CBE95D
:10B020002B01DBE934014EF6BF34CBE93E01DBE90D
:10B030004701B8EE411ACBE951010120C0F20404E6
:10B040000BF128094C268BED6B1ACBE96423039096
:10B05000CDF808B00AE000BFB4EE49AA0020F1EE36
:10B0600010FAB0EE49AA039000F08082002009E0B7
:10B0700004984EF6BF340328C0F204044FF04C0687
:10B08000EAD801309BED6A1A0490002007E000BF67
:10B09000002940F091800130072800F08D8000EBFE
:10B0A00040016218615C5378927811FB069512FB9F
:10B0B000069A95ED0F5A9AED0F6AB4EE451A13FBF6
:10B0C0000697F1EE10FA4FF00001B4EE461A95ED36
:10B0D0000E2A97ED0E3A97ED0F4A9AED0E7AA8BF19
:10B0E0000121F1EE10FA4FF00002B8BF01225140E9
:10B0F0004FF0000112D177EE420A71EE451A60EE70
:10B10000A10A76EE451AC0EEA10A72EE200AB4EE4C
:10B11000600AF1EE10FAB4BF01210021B4EE441A26
:10B12000F1EE10FA4FF00002B4EE451AA8BF01226A
:10B13000F1EE10FA4FF00003B8BF01235A4012D1CC
:10B1400072EE430A71EE441A60EEA10A75EE441ADB
:10B15000C0EEA10A73EE200AB4EE600AF1EE10FA16
:10B16000B8BF81F00101B4EE461AF1EE10FA4FF0CB
:10B170000002B4EE441AA8BF0122F1EE10FA4FF01B
:10B180000003B8BF01235A407FF482AF73EE470A31
:10B1900071EE461A60EEA10A74EE461AC0EEA10ADC
:10B1A00077EE200AB4EE600AF1EE10FABFF670AF47
:10B1B00000297FF470AF00BFDBED6B0A66EE031A67
:10B1C00067EE042A72EEE11A60EE872A60EE834A87
:10B1D00064EE223A66EE245A65EE255A63EE853A0D
:10B1E00065EE222A73EEE53A62EE812A73EEE22AD8
:10B1F00060EE203A63EE865A65EE855A65EE244A83
:10B2000075EEA22A64EE814A64EE233A67EE055A8F
:10B2100074EEA22A62EE064A63EE853A71EEE51AF2
:10B2200072EEE32A74EEE53A27EE017A74EEA11A83
:10B2300037EE237A60EE063A60EE454A23EE055A71
:10B2400037EE637A62EE013A64EE205A20EE866AA7
:10B2500075EE210A24EE022A70EEC20A35EE422A69
:10B2600021EE205A23EE011A32EE411A20EE040A92
:10B2700030EE010A37EE637A33EE800A37EE647AF5
:10B2800034EE800A25EE877A26EE000A82EE851AD1
:10B2900087EE052A80EE050A0020CBF86800CBF87F
:10B2A000B400CBF80001CBF84C01CBF8980103981F
:10B2B000C00785ED101A87ED102A8AED100A05D017
:10B2C0005846002101F0CCFAB0EE408A9BF8B0015C
:10B2D00070B99BED050A9BED081AB8EE400A21EE05
:10B2E000000AB4EE408AF1EE10FAC8BFB0EE408A10
:10B2F00005F138000B9007F138000D900AF1380085
:10B300000C9005F14000029E079007F14000069066
:10B3100096ED041A96F8B10105F13C0807F13C0BD3
:10B320000AF13C040AF14001B0EE4A0AF0EE480A84
:10B33000CDF82080CDF824B00A94059100F0E4FB0C
:10B340000D989BED006A90ED005A0C9894ED007AF0
:10B35000D0ED000A67EE051A60EE862A98ED004AE5
:10B3600072EEE11A60EE202A60EE054A96ED6A2A36
:10B3700066EE223A67EE245A96ED691A64EE255A73
:10B3800063EE843A64EE222A73EEE53A62EE822A94
:10B390000B9973EEE22A60EE013A63EE875A91ED63
:10B3A000003A65EE845A64EE244A75EEA22A64EEF1
:10B3B000824A66EE233A60EE845A74EEA22A63EE65
:10B3C000074A63EE843A71EEE51A72EEE32A74EEF0
:10B3D000E53A60EE820A74EEA11A70EEA30A61EEFD
:10B3E000073A61EE444A25EE044A70EEE30A63EE42
:10B3F000023A74EE211A26EE033A71EEC31A34EEC5
:10B40000433A22EE214A25EE022A33EE422A21EE69
:10B41000061A31EE021A70EEE30A33EE811A70EE6C
:10B42000E40A66EE005A34EE811A20EE072A65EE31
:10B43000A00A22EE011A82EE842A80EE843A81EE7E
:10B44000041A3246079EDDF818B0DDF8148082ED4C
:10B450006B0A2846144686ED002A8BED003A88EDEB
:10B46000001A96ED001AB0EE410A01F02FFF0D9D73
:10B470009BED000A3846294601F028FF37460C9E0E
:10B4800098ED000A5046314601F020FF0B98D5EDAB
:10B49000000A90ED000A08989BED003A90ED004AF2
:10B4A0000998D6ED001A90ED005A0A9898ED002AF6
:10B4B00090ED006A97ED001A25EE027A63EE062AF7
:10B4C00061EE821A60EE830A64EE222A27EE047A85
:10B4D00065EE211A60EE860A20EE010A37EE227A26
:10B4E00061EE062A64EE200A61EE841A20EE060A56
:10B4F00062EE852A71EEA00A20EE050A32EE877A06
:10B5000030EE200AC0EE070A94ED690A39465A4621
:10B51000A346434670EE600AF0EEE00AF4EE4B0AF2
:10B52000F1EE10FA3FF7A4AD25EE065A24EE054AD7
:10B5300033EE025A31EE055A24EE054A84EE074AEC
:10B540009BED6A5A04984EF6BF34C0F204044C26B0
:10B5500035EE444AB0EEC44AB4EE4B4AF1EE10FA6E
:10B560007FF77AAD0428FFF48CAD75E59BF8B00148
:10B57000DDF80480012860D19FED0A0AB5EE401A7B
:10B58000F1EE10FAB0EE404A10DBB5EE403AF1EEC3
:10B5900010FA09DBB5EE402AF1EE10FAB0EE414A9E
:10B5A0004BDA03E000000000B0EE414A81ED004AB2
:10B5B00092ED001AF0EE480AB5EE401AF1EE10FADC
:10B5C000B8BFB0EE401A82ED001A93ED002A0E4685
:10B5D000B5EE402AF1EE10FAB8BFB0EE402A83ED86
:10B5E000002A91ED000A92ED001A9BF8B10130EEAD
:10B5F000010A9BED041A32EE00AAB0EE490A154684
:10B600001F4600F081FA96ED001A8BED6B0A81EE71
:10B610000A1A20EE011A86ED001A95ED001A81EE45
:10B620000A1A20EE011A85ED001A97ED001A81EE34
:10B630000A1A20EE010A87ED000A9BED100A9BED25
:10B640001A2AB8F1000F82EE001A1FED2A0AB5EE91
:10B65000401A00F03981F1EE10FAB0EE403A20DDE8
:10B66000B7EE003AB4EE431AF1EE10FA19DA9BED98
:10B67000175A9BED166A21EE055A9BED154A21EEED
:10B68000055A21EE066A21EE066A25EE015A9BED67
:10B69000143A35EE065A24EE011A31EE051A33EE4D
:10B6A000013ABBF84A0001EE100AB8EE411A23EE47
:10B6B000011A8BED131A8BED071A88ED002A9BED0A
:10B6C000232A9BED2D1AB0EE403A81EE022AB5EE08
:10B6D000402AF1EE10FA20DDB7EE003AB4EE432A2C
:10B6E000F1EE10FA19DA9BED2A5A9BED296A22EE47
:10B6F000055A9BED284A22EE055A22EE066A22EEF2
:10B70000066A25EE025A9BED273A35EE065A24EEDC
:10B71000022A32EE052A33EE023ABBF8960002EE18
:10B72000100AB8EE422A23EE022A9BED073A8BED6F
:10B73000262A33EE022A8BED072A88ED011A9BEDAB
:10B74000362A9BED401AB0EE403A81EE022AB5EE61
:10B75000402AF1EE10FA20DDB7EE003AB4EE432AAB
:10B76000F1EE10FA19DA9BED3D5A9BED3C6A22EEA0
:10B77000055A9BED3B4A22EE055A22EE066A22EE5E
:10B78000066A25EE025A9BED3A3A35EE065A24EE49
:10B79000022A32EE052A33EE023ABBF8E20002EE4C
:10B7A000100AB8EE422A23EE022A9BED073A8BEDEF
:10B7B000392A33EE022A8BED072A88ED021A9BED17
:10B7C000492A9BED531AB0EE403A81EE022AB5EEBB
:10B7D000402AF1EE10FA20DDB7EE003AB4EE432A2B
:10B7E000F1EE10FA19DA9BED505A9BED4F6A22EEFA
:10B7F000055A9BED4E4A22EE055A22EE066A22EECB
:10B80000066A25EE025A9BED4D3A35EE065A24EEB5
:10B81000022A32EE052A33EE023ABBF82E0102EE7E
:10B82000100AB8EE422A23EE022A9BED073A8BED6E
:10B830004C2A33EE022A8BED072A88ED031A9BED82
:10B840005C2A9BED661A81EE022AB5EE402AF1EEE3
:10B8500010FA20DDB7EE000AB4EE402AF1EE10FA3D
:10B8600019DA9BED634A9BED625A22EE044A9BED86
:10B87000613A22EE044A22EE055A22EE055A24EEDF
:10B88000024A9BED600A34EE054A23EE022A32EEAC
:10B89000042A30EE020ABBF87A0102EE100AB8EE72
:10B8A000422A20EE020A9BED072A8BED5F0A32EE58
:10B8B000000A8BED070A88ED041A00200EB0BDECDB
:10B8C000088B01B0BDE8F08FF1EE10FAB0EE403A0F
:10B8D00020DDB7EE003AB4EE431AF1EE10FA19DAB1
:10B8E0009BED174A9BED165A21EE044A9BED153A43
:10B8F00021EE044A21EE055A21EE055A24EE014AB2
:10B900009BED142A34EE054A23EE011A31EE041A97
:10B9100032EE013A9BED231A9BED2D2ABBF84A002B
:10B9200082EE012A01EE100AB8EE411A23EE011A46
:10B93000B0EE403A8BED131AB5EE402AF1EE10FA54
:10B9400020DDB7EE003AB4EE432AF1EE10FA19DA30
:10B950009BED2A5A9BED296A22EE055A9BED284A57
:10B9600022EE055A22EE066A22EE066A25EE025AF9
:10B970009BED273A35EE065A24EE022A32EE052ACE
:10B9800033EE023A9BED362A9BED404ABBF8960017
:10B9900084EE022A04EE100AB8EE444A23EE043A7A
:10B9A0008BED263A31EE031AB0EE403AB5EE402A5E
:10B9B000F1EE10FA20DDB7EE003AB4EE432AF1EED4
:10B9C00010FA19DA9BED3D5A9BED3C6A22EE055ABE
:10B9D0009BED3B4A22EE055A22EE066A22EE066AEB
:10B9E00025EE025A9BED3A3A35EE065A24EE022A2B
:10B9F00032EE052A33EE023A9BED492A9BED534A7B
:10BA0000BBF8E20084EE022A04EE100AB8EE444AC3
:10BA100023EE043A8BED393A31EE031AB0EE403A98
:10BA2000B5EE402AF1EE10FA20DDB7EE003AB4EEA2
:10BA3000432AF1EE10FA19DA9BED505A9BED4F6A4A
:10BA400022EE055A9BED4E4A22EE055A22EE066A78
:10BA500022EE066A25EE025A9BED4D3A35EE065A65
:10BA600024EE022A32EE052A33EE023A9BED5C2ADE
:10BA70009BED664ABBF82E0184EE022A04EE100A02
:10BA8000B8EE444A23EE043A31EE031A8BED4C3AF9
:10BA9000B5EE402AF1EE10FA20DDB7EE000AB4EE62
:10BAA000402AF1EE10FA19DA9BED634A9BED625AD7
:10BAB00022EE044A9BED613A22EE044A22EE055A38
:10BAC00022EE055A24EE024A9BED600A34EE054A46
:10BAD00023EE022A32EE042A30EE020ABBF87A0183
:10BAE00002EE100AB8EE422A20EE020A8BED5F0A3F
:10BAF00031EE000A00208BED070A0EB0BDEC088B7A
:10BB000001B0BDE8F08F0000F0B581B02DED0A8BDB
:10BB1000F4EE410AB0EE418AF1EE10FAB0EE409A2E
:10BB200016DA9FEDD40AF5EE400AF1EE10FAB0EE07
:10BB3000401AB5EE409A18BFB0EE481AF1EE10FA6E
:10BB400018BFB0EE410ABDEC0A8B01B0F0BD00BFDA
:10BB5000032803D8DFE800F002EE0C5A30EEC80AE2
:10BB600020EE090A30EE080ABDEC0A8B01B0F0BDE8
:10BB7000B5EE409AF1EE10FA30EEC8BA40F32881E3
:10BB80009FEDBD0AB4EE409AF1EE10FA80F22C81DE
:10BB900019EE100AFEF744FE41EC100B9FEDB81BA6
:10BBA00004460D4624F058FDB0EE40AA2046294632
:10BBB00022462B46F0EE60AAFEF7EFFC9FEDB20B9B
:10BBC00053EC102BFEF7E9FC9FEDB10B04460D463C
:10BBD00051EC1A0B53EC102BFEF7DFFC22462B46E0
:10BBE000FEF734FC9FEDAC0A044629EE000A10EE85
:10BBF000100A0D46FEF714FE02460B462046294663
:10BC0000FEF724FC9FEDA60B00F0B5BDB5EE409A03
:10BC1000F1EE10FA30EEC8CA40F3DE809FED960ACE
:10BC2000B4EE409AF1EE10FA80F2D48119EE100AC7
:10BC3000FEF7F6FD41EC1A0B9FED9B1BB0EE4A0A96
:10BC4000F0EE6A0A04460D4624F006FDB0EE40BA56
:10BC50009FED971BB0EE4A0AF0EE60BAF0EE6A0A6A
:10BC600024F0FAFC51EC100B9FED930B53EC102BCE
:10BC7000FEF793FC9FED920B06460F4651EC1B0B13
:10BC800053EC102BFEF789FC32463B46FEF7DEFBF9
:10BC90009FED8D1BB0EE4A0AF0EE6A0A06460F468B
:10BCA00024F0DAFC51EC100B9FED890B53EC102BB8
:10BCB000FEF773FC32463B46FEF7C8FB9FED701B58
:10BCC000B0EE4A0AF0EE6A0A06460F4624F0C4FCBB
:10BCD00051EC100B9FED800B53EC102BFEF75DFC2D
:10BCE00032463B46FEF7B2FB06460F462046294643
:10BCF00022462B46FEF751FC9FED790B53EC102B9F
:10BD0000FEF74BFC32463B46FEF7A0FB9FEDB00A28
:10BD1000044629EE000A10EE100A0D46FEF780FDDB
:10BD200002460B4620462946FEF790FB9FED6E0B20
:10BD300000F0C3BCB5EE409AF1EE10FA30EEC8BA8E
:10BD40004EDD9FED4D0AB4EE409AF1EE10FA80F20E
:10BD5000B78119EE100AFEF763FD41EC100B9FED61
:10BD6000481B04460D4624F077FCB0EE40AA20465E
:10BD7000294622462B46F0EE60AAFEF70EFC9FED08
:10BD80005C0B53EC102BFEF708FC9FED5B0B04469D
:10BD90000D4651EC1A0B53EC102BFEF7FEFB22461E
:10BDA0002B46FEF753FB9FEDE90A044629EE000AF5
:10BDB00010EE100A0D46FEF733FD02460B462046F4
:10BDC0002946FEF743FB9FED4E0B00F0D4BC00BFAD
:10BDD0009FED280A00F0D7BC9FED260A00F075BC45
:10BDE0009FED240A00F0CFBC9FEDD90AB4EE409A33
:10BDF000F1EE10FA80F2B08119EE100AFEF710FD94
:10BE000041EC100B9FED1E1B04460D4624F024FC54
:10BE1000B0EE40AA2046294622462B46F0EE60AA04
:10BE2000FEF7BBFB9FED380B53EC102BFEF7B5FB79
:10BE30009FED370B04460D4651EC1A0B53EC102BBB
:10BE4000FEF7ABFB22462B46FEF700FB9FEDC10A37
:10BE5000044629EE000A10EE100A0D46FEF7E0FC3B
:10BE600002460B4620462946FEF7F0FA9FED2A0BC4
:10BE700000F081BC00000000CDCC4C3E00BF00BFF4
:10BE8000000000000000084000000020C0DB0FC0E0
:10BE900000000040A2B40440234A474000BF00BF56
:10BEA0000000002074A8703F00000000000018404F
:10BEB0000000000000001440000000A099D19FC0C5
:10BEC0000000000000FAAA4000000000000010403E
:10BED0000000006066927A4000000020DD5440C0FF
:10BEE00000000040B280ED3F00000080BA37753F8F
:10BEF00000000020ED2AC43F000000A09465E33F4D
:10BF000000000020896F723F000000E04DE20AC08F
:10BF1000000000001748F83F000000805DA28A3F43
:10BF200000000040E1CA5940000000A0452655C06D
:10BF300000000000D76344C0000000006F412040B3
:10BF40005516855D143D903F000000E0CE85913F81
:10BF5000000000C008E1EA3F000000C0B255633FA6
:10BF6000000000E09C1105C0000000C0E49BEC3F15
:10BF700000000060DC0DAA3F00000000293C6EC0FC
:10BF8000000000803F3D58400000002085036C40C9
:10BF900000000000FEA457C0BC96900F7A36F9BF8F
:10BFA00000000000000008400000004053E8D0BF3F
:10BFB00000000000BE30F13F00000060F8FA8ABFC8
:10BFC0000000002014BF02C000000020F510E73F71
:10BFD000C9E4B43D9FED5E0AB4EE409AF1EE10FA6A
:10BFE00080F2008119EE100AFEF71AFC41EC1A0BE0
:10BFF0001FED511BB0EE4A0AF0EE6A0A04460D46E8
:10C0000024F02AFBB0EE40BA1FED511BB0EE4A0AF5
:10C01000F0EE60BAF0EE6A0A24F01EFB51EC100B51
:10C020001FED410B53EC102BFEF7B7FA1FED420B3F
:10C0300006460F4651EC1B0B53EC102BFEF7ADFAE6
:10C0400032463B46FEF702FA1FED731BB0EE4A0A7A
:10C05000F0EE6A0A06460F4624F0FEFA51EC100B89
:10C060001FED4D0B53EC102BFEF797FA32463B4673
:10C07000FEF7ECF906460F462046294622462B4697
:10C08000FEF78BFA1FED540B53EC102BFEF785FADD
:10C0900032463B46FEF7DAF99FEDD30A044629EE15
:10C0A000000A10EE100A0D46FEF7BAFB02460B46D8
:10C0B00020462946FEF7CAF91FED5F0BFDE200BFDF
:10C0C0009FED230AB4EE409AF1EE10FA80F200815F
:10C0D00019EE100AFEF7A4FB41EC100B1FED981BA4
:10C0E00004460D4624F0B8FAB0EE40AA2046294690
:10C0F00022462B46F0EE60AAFEF74FFA1FED6E0BBC
:10C1000053EC102BFEF749FA1FED6F0B04460D465A
:10C1100051EC1A0B53EC102BFEF73FFA22462B463C
:10C12000FEF794F99FEDB10A044629EE000A10EEDD
:10C13000100A0D46FEF774FB02460B4620462946C0
:10C14000FEF784F91FED7C0B15E300BF880F2C3D33
:10C15000CDCCCC3E7A363F409FEDA50AB4EE409A56
:10C16000F1EE10FA80F2FA8019EE100AFEF758FB91
:10C1700041EC100B1FEDBE1B04460D4624F06CFA7B
:10C18000B0EE40AA2046294622462B46F0EE60AA91
:10C19000FEF703FA1FED8E0B53EC102BFEF7FDF9A3
:10C1A0001FED8F0B04460D4651EC1A0B53EC102B70
:10C1B000FEF7F3F922462B46FEF748F99FEDEB0A0E
:10C1C000044629EE000A10EE100A0D46FEF728FB81
:10C1D00002460B4620462946FEF738F91FED9C0B18
:10C1E000C9E200BF9FED820AB4EE409AF1EE10FA68
:10C1F00080F2008119EE100AFEF712FB41EC1A0BD7
:10C200001FEDD51BB0EE4A0AF0EE6A0A04460D4651
:10C2100024F022FAB0EE40BA1FEDD51BB0EE4A0A68
:10C22000F0EE60BAF0EE6A0A24F016FA51EC100B48
:10C230001FEDAF0B53EC102BFEF7AFF91FEDB00B5A
:10C2400006460F4651EC1B0B53EC102BFEF7A5F9DD
:10C2500032463B46FEF7FAF81FEDF71BB0EE4A0AEE
:10C26000F0EE6A0A06460F4624F0F6F951EC100B80
:10C270001FEDBB0B53EC102BFEF78FF932463B46FC
:10C28000FEF7E4F806460F462046294622462B468E
:10C29000FEF783F91FEDC20B53EC102BFEF77DF96F
:10C2A00032463B46FEF7D2F89FEDB10A044629EE2E
:10C2B000000A10EE100A0D46FEF7B2FA02460B46CF
:10C2C00020462946FEF7C2F81FEDCD0BF5E100BF71
:10C2D0009FED470AB4EE409AF1EE10FA80F2008129
:10C2E00019EE100AFEF79CFA41EC100B1FEDD41B5F
:10C2F00004460D4624F0B0F9B0EE40AA2046294687
:10C3000022462B46F0EE60AAFEF747F91FEDDA0B46
:10C3100053EC102BFEF741F91FEDDB0B04460D46E5
:10C3200051EC1A0B53EC102BFEF737F922462B4633
:10C33000FEF78CF89FEDE90A044629EE000A10EE9C
:10C34000100A0D46FEF76CFA02460B4620462946B7
:10C35000FEF77CF81FEDE80B0DE200BF9FEDE00A51
:10C36000B4EE409AF1EE10FA80F2048119EE100A50
:10C37000FEF756FA41EC100B1FEDF71B04460D4675
:10C3800024F06AF9B0EE40AA2046294622462B4600
:10C39000F0EE60AAFEF701F91FEDF70B53EC102B3E
:10C3A000FEF7FBF81FEDF80B04460D4651EC1A0B97
:10C3B00053EC102BFEF7F1F822462B46FEF746F819
:10C3C0009FEDF50A044629EE000A10EE100A0D460C
:10C3D000FEF726FA02460B4620462946FEF736F8B7
:10C3E0009FEDC10BC7E100BF8E2306BF4852923DAF
:10C3F0009A99193F9FEDBA0AB4EE409AF1EE10FAFD
:10C4000080F2FE8019EE100AFEF70AFA41EC1A0BD0
:10C410009FEDEF1BB0EE4A0AF0EE6A0A04460D46A5
:10C4200024F01AF9B0EE40BA9FEDDD1BB0EE4A0AD7
:10C43000F0EE60BAF0EE6A0A24F00EF951EC100B3F
:10C440009FEDE50B53EC102BFEF7A7F89FEDE40BE7
:10C4500006460F4651EC1B0B53EC102BFEF79DF8D4
:10C4600032463B46FDF7F2FF9FEDCF1BB0EE4A0A86
:10C47000F0EE6A0A06460F4624F0EEF851EC100B77
:10C480009FEDD90B53EC102BFEF787F832463B4655
:10C49000FDF7DCFF06460F462046294622462B467E
:10C4A000FEF77BF89FEDD20B53EC102BFEF775F8DF
:10C4B00032463B46FDF7CAFF9FEDE50A044629EEEA
:10C4C000000A10EE100A0D46FEF7AAF902460B46C6
:10C4D00020462946FDF7BAFF9FEDC70BEDE000BFF0
:10C4E0009FEDD90AB4EE409AF1EE10FA80F2008185
:10C4F00019EE100AFEF794F941EC100B9FEDAA1B00
:10C5000004460D4624F0A8F8B0EE40AA204629467D
:10C5100022462B46F0EE60AAFEF73FF89FEDC40BD3
:10C5200053EC102BFEF739F89FEDC30B04460D4674
:10C5300051EC1A0B53EC102BFEF72FF822462B462A
:10C54000FDF784FF9FEDC50A044629EE000A10EEB0
:10C55000100A0D46FEF764F902460B4620462946AE
:10C56000FDF774FF9FEDB60B05E100BF91ED2C4088
:10C570005EBA9C41B7EE000AB4EE409AF1EE10FAB2
:10C5800080F2018119EE100AFEF74AF941EC100B16
:10C590009FED851B04460D4624F05EF8B0EE40AAE0
:10C5A0002046294622462B46F0EE60AAFDF7F5FF0D
:10C5B0009FED930B53EC102BFDF7EFFF9FED920BCC
:10C5C00004460D4651EC1A0B53EC102BFDF7E5FF1A
:10C5D00022462B46FDF73AFF9FED9E0A044629EEC0
:10C5E000000A10EE100A0D46FEF71AF902460B4635
:10C5F00020462946FDF72AFF9FED850BBBE000BFD3
:10C60000B7EE000AB4EE409AF1EE10FA5DDA19EED8
:10C61000100AFEF705F941EC1A0B9FED611BB0EE15
:10C620004A0AF0EE6A0A04460D4624F015F8B0EE08
:10C6300040BA9FED5D1BB0EE4A0AF0EE60BAF0EE34
:10C640006A0A24F009F851EC100B9FED590B53ECDA
:10C65000102BFDF7A2FF9FED580B06460F4651EC3D
:10C660001B0B53EC102BFDF798FF32463B46FDF7B2
:10C67000EDFE06460F462046294622462B46FDF78C
:10C680008CFF9FED4F0B53EC102BFDF786FF3246CE
:10C690003B46FDF7DBFE9FED6D0A044629EE000ADE
:10C6A00010EE100A0D46FEF7BBF802460B46204678
:10C6B0002946FDF7CBFE9FED440B53EC102BFDF705
:10C6C000C5FEFEF7C0F800EE100A2CEE000A30EEB0
:10C6D000080ABDEC0A8B01B0F0BD00BFA9BC3D3E0D
:10C6E000CDCC4C3F00BF00BF0000002019C7B43FB5
:10C6F000B7EE000AB4EE409AF1EE10FA43DA19EE02
:10C70000100AFEF78DF841EC100B9FED271B044635
:10C710000D4623F0A1FFB0EE40AA2046294622464E
:10C720002B46F0EE60AAFDF738FF9FED3B0B53EC74
:10C73000102BFDF732FF9FED3A0B04460D4651ECEE
:10C740001A0B53EC102BFDF728FF22462B46FDF762
:10C750007DFE9FED410A044629EE000A10EE100A04
:10C760000D46FEF75DF802460B4620462946FDF7CA
:10C770006DFE9FED2D0B53EC102BFDF767FEFEF7C2
:10C7800062F800EE100A2BEE000A30EE080ABDEC4B
:10C790000A8B01B0F0BD00BFCE88224000BF00BFB1
:10C7A00000000000000010400000000000000840F1
:10C7B000000000E07CBF3AC0000000C007BD1F4081
:10C7C0000000008095434040000000C06B090E400F
:10C7D0000000000000001440000000400A9B74406C
:10C7E000000000C0C8E655C0000000A070697EC00F
:10C7F00000000080C2CD7540000000E0CEB72F40A1
:10C80000000000C0073D08C0000000C049EFEF3F36
:10C81000000000005262B3BF000000E0ACFAF3BFBA
:10C8200000000080F2B0F83F000000A0B0C4C7BF15
:10C83000000000E0B1F4E5BF00000040D8F0F43F94
:10C8400000000040E389B0BFCDCC4C3F83C083C122
:10C85000A470EEC2EBE246405F24643FD82AE13E7A
:10C860002DED108B90ED1A0A90ED2D1A90ED402AC7
:10C87000B5EE400AF1EE10FAB5EE401A028B90EDDB
:10C88000085A9FED794AB8BFB0EE440AF1EE10FAAB
:10C89000B5EE402A80ED1A0AB8BFB0EE441A80ED1A
:10C8A0002D1AF1EE10FAB8BFB0EE442A90ED533ACB
:10C8B00080ED402AB5EE403AF1EE10FAB8BFB0EE86
:10C8C000443A90ED666A80ED533AB5EE406AF1EE77
:10C8D00010FAB5EE400AB8BFB0EE446AF1EE10FAB5
:10C8E000F0EE442A80ED666A3CD1B5EE401AF1EED6
:10C8F00010FAF0EE441A40D1B5EE402AF1EE10FAEB
:10C90000F0EE440A44D1B5EE403AF1EE10FAB0EE42
:10C91000447A48D1B5EE406AF1EE10FA4CD1F5EE0A
:10C92000402AF1EE10FA50D1F5EE401AF1EE10FA6D
:10C930006CD1F5EE400AF1EE10FA01EE902A40F0CB
:10C940008480B5EE407AF1EE10FAF8EE610A00F05C
:10C950009C80B5EE404AF1EE10FA43D1B0EE474A62
:10C9600093E000BF90ED107AC7EE002AB5EE401AB2
:10C97000F1EE10FAF0EE441ABED090ED237AC7EE35
:10C98000011AB5EE402AF1EE10FAF0EE440ABAD0E0
:10C9900090ED367AC7EE020AB5EE403AF1EE10FAA3
:10C9A000B0EE447AB6D090ED497A87EE037AB5EED0
:10C9B000406AF1EE10FAB2D090ED5C4A84EE064A7D
:10C9C000F5EE402AF1EE10FAAED0F5EE401AF1EE97
:10C9D00010FA0FD1F0EE621AF5EE401AF1EE10FAED
:10C9E000A7D013E0B4EE447AF1EE10FAB8BFB0EE7F
:10C9F000474A4AE0F4EE612AF1EE10FAB8BFF0EED1
:10CA0000621AF5EE401AF1EE10FA92D0F5EE400AF5
:10CA1000F1EE10FA0AD1F0EE610AF5EE400AF1EEFD
:10CA200010FA01EE902A3FF48CAF0EE0F4EE601A9B
:10CA3000F1EE10FAB8BFF0EE610AF5EE400AF1EE41
:10CA400010FA01EE902A3FF47CAFB5EE407AF1EE99
:10CA500010FA0BD1B0EE607AB5EE407AF1EE10FA32
:10CA6000F8EE610A11D074E700000000F4EE470A06
:10CA7000F1EE10FAB8BFB0EE607AB5EE407AF1EEA2
:10CA800010FAF8EE610A7FF464AF24EE000A24EE97
:10CA9000011A24EE022A24EE033A24EE064A9FED00
:10CAA000CE6A25EE205A90ED107AD0ED230AD0ED13
:10CAB000361AD0ED492AD0ED5C3ADFEDC64A25EEB4
:10CAC000066AFEEE005AF7EE006AB5EE407AF1EE25
:10CAD00010FAF0EE647A1FD1F5EE400AF1EE10FA8A
:10CAE000B0EE648A51D1F5EE401AF1EE10FAB0EED4
:10CAF000649A40F08480F5EE402AF1EE10FAB0EE30
:10CB000064AA40F0B680F5EE403AF1EE10FAB0EECD
:10CB100064BA00F01981E5E0C0EE077AB0EE648AED
:10CB2000F5EE407AF1EE10FA20DDF4EE667AF1EEE1
:10CB300010FAB0EE668A19DA90ED17AA90ED16BADF
:10CB400027EE8AAA90ED159A27EE8AAA27EE8BBACD
:10CB500027EE8BBA2AEE27AA90ED148A3AEE0BAA9A
:10CB600069EE277A77EE8A7A38EE278AB0F84A207B
:10CB700007EE902AF8EE677A68EE277AF5EE400A1B
:10CB8000F1EE10FAB0EE648AADD081EE208AB0EEFC
:10CB9000649AB5EE408AF1EE10FA20DDB4EE668AB2
:10CBA000F1EE10FAB0EE669A19DA90ED2ABA90ED2D
:10CBB00029CA28EE0BBA90ED28AA28EE0BBA28EE67
:10CBC0000CCA28EE0CCA2BEE08BA90ED279A3BEE61
:10CBD0000CBA2AEE088A38EE0B8A39EE089AB0F8B9
:10CBE000962008EE102AB8EE488A29EE088AF5EE5B
:10CBF000401AF1EE10FAB0EE649A3FF47CAF82EE88
:10CC0000219AB0EE64AAB5EE409AF1EE10FA20DD5A
:10CC1000B4EE669AF1EE10FAB0EE66AA19DA90ED6B
:10CC20003DCA90ED3CDA29EE0CCA90ED3BBA29EEF4
:10CC30000CCA29EE0DDA29EE0DDA2CEE09CA90EDB8
:10CC40003AAA3CEE0DCA2BEE099A39EE0C9A3AEE4E
:10CC500009AAB0F8E22009EE102AB8EE499A2AEEA5
:10CC6000099AF5EE402AF1EE10FAB0EE64AA3FF40C
:10CC70004AAF83EE22AAB0EE64BAB5EE40AAF1EE56
:10CC800010FA20DDB4EE66AAF1EE10FAB0EE66BA44
:10CC900019DA90ED50DA90ED4FEA2AEE0DDA90EDC8
:10CCA0004ECA2AEE0DDA2AEE0EEA2AEE0EEA2DEE32
:10CCB0000ADA90ED4DBA3DEE0EDA2CEE0AAA3AEE03
:10CCC0000DAA3BEE0ABAB0F82E210AEE102AB8EEF1
:10CCD0004AAA2BEE0AAAF5EE403AF1EE10FAB0EEAF
:10CCE00064BA31D084EE23BAB0EE64CAB5EE40BA6D
:10CCF000F1EE10FA20DDB4EE66BAF1EE10FAB0EE05
:10CD000066CA19DA90ED63EA90ED62FA2BEE0EEA4C
:10CD100090ED61DA2BEE0EEA2BEE0FFA2BEE0FFA06
:10CD20002EEE0BEA90ED60CA3EEE0FEA2DEE0BBA46
:10CD30003BEE0EBA3CEE0BCAB0F87A210BEE102A8D
:10CD4000B8EE4BBA2CEE0BBA77EE887A77EE897A8A
:10CD500077EE8A7A77EE8B7AF4EE467AF1EE10FA75
:10CD600022DD37EEC58A28EE258AC8EE277A27EE1F
:10CD7000808A38EE000A27EE818A38EE011A27EE03
:10CD8000828A38EE022A27EE838A67EE847A38EEAA
:10CD9000033A37EE844AB5EE407AF1EE10FAF0EE3F
:10CDA000647A3FF499AEB7E649B181ED000A81EDAE
:10CDB000011A81ED022A81ED033A81ED044A30EE39
:10CDC000010A30EE020A30EE030A30EE040ABDEC2E
:10CDD000108B704700000000C520803F2DE9F04F08
:10CDE00083B0002800F094818946002900F09081EA
:10CDF000DDF830E0A2F101085FEA0847C0F848908A
:10CE000056D000EE10EA01EE103AB8EE400AB8EE45
:10CE1000411A80EE010A08EB880739F817701FFAEB
:10CE200088FC01EE107A4FEA8C0717FA88F7B8EE03
:10CE3000411A09EB4707A7F10A05464620EE010A09
:10CE40006F8901EE107AB8EE411AB4EE410AF1EEA4
:10CE500010FA39DCB7B2012F2AD02C8801EE104A23
:10CE6000B8EE411AB4EE410AF1EE10FA22DC022FBC
:10CE70001ED035F80A4C01EE104AB8EE411AB4EE55
:10CE8000410AF1EE10FA19DC032F11D035F8144CD9
:10CE900001EE104AB8EE411AB4EE410AF1EE10FA72
:10CEA00010DC043EACF1040C3404A5F12805C7D114
:10CEB000164610E0ACF1010C06E000BFACF1020C2C
:10CEC00002E000BFACF1030C0CF101064FF0FF379C
:10CED000B2B217FA86F8D9F80240A0F8446000EE22
:10CEE000104A08EB880409EB4404D4F80240B8EE79
:10CEF000400A80ED070A00EE104AB8EE400A80EDC5
:10CF0000060A734538BF9E46B9F80630B6B200EE41
:10CF1000103AB9F80830B8EE400A01EE103A022E85
:10CF2000B8EE411AA0F822E0C0F0DC80531E023AAD
:10CF3000032A03F0030403D20123002C7BD1D1E0A8
:10CF4000CDE9004623F0030109F130020024CDF8B9
:10CF5000089034E002EE10AAB8EE422A30EE020A3F
:10CF600002EE109AB8EE422A31EE021A02EE108A50
:10CF7000B8EE422A30EE020A02EE10BAB8EE422AA9
:10CF800031EE021A02EE106AB8EE422A30EE020AC0
:10CF900002EE105AB8EE422A31EE021A02EE10EA00
:10CFA000B8EE422A30EE020A02EE107AB8EE422AB9
:10CFB000043431EE021AA14202F1280236D052F8AE
:10CFC000243C32F820AC32F81E9C2BB152F82E3C97
:10CFD00013B932F8303C038452F81A7C32F8168CBC
:10CFE00032F814BC2FB152F8247C17B932F8267CE1
:10CFF000078452F8107C32F80C6C32F80A5C2FB1BE
:10D0000052F81A7C17B932F81C7C078452F806CC07
:10D0100032F802EC1788BCF1000F9BD052F8103C9C
:10D02000002B97D132F8123C038493E7631C9DE8F0
:10D030005002002C56D003EB830C09EB4C02D18834
:10D04000178902EE101AD2F8021004EE107AB8EE28
:10D05000423AB8EE442A51B1591E01EB810709EB5F
:10D060004701D1F8021011B939F81710018430EED8
:10D07000030A012C31EE021A34D0591C01EB810352
:10D0800009EB4305E9882F8902EE101AD5F8021042
:10D0900004EE107AB8EE423AB8EE442A29B1D2F83A
:10D0A000021011B939F81C10018430EE030A022C69
:10D0B00031EE021A16D0518B02EE101A918BB8EE97
:10D0C000422A30EE020A02EE101AD2F81610B8EE1A
:10D0D000422A31EE021A29B1D5F8021011B939F8F5
:10D0E0001310018402EE106AB8EE422A80EE020AA2
:10D0F00081EE021A9FED082A20EE020A21EE021AA2
:10D1000080ED040A80ED051A80ED0E0A80ED0F1AFD
:10D1100003B0BDE8F08F00BF17B7D1382DE9F04359
:10D1200081B0DDE90898044608461E4615460F46BC
:10D13000FDF750F90021C4E90011C4E90211C2B29F
:10D1400020463946102A88BF0F22FDF7FBF896E8E3
:10D150000F00A4F82490C4E9045004F118000EC094
:10D16000C4F8288001B0BDE8F0830000F0B581B0BC
:10D1700000294FF0FF073FD01446EAB391ED000AB3
:10D180000D46064628300021002700F09FF8BDEE2E
:10D19000C00A10EE100A95ED010A208006F1740015
:10D1A000002100F093F8BDEEC00A10EE100A95EDD4
:10D1B000020A608006F1C000002100F087F8BDEE91
:10D1C000C00A10EE100A95ED030AA08006F58670DD
:10D1D000002100F07BF8BDEEC00A10EE100A95EDBC
:10D1E000040AE08006F5AC70002100F06FF8BDEE97
:10D1F000C00A10EE100A208178B201B0F0BD000024
:10D2000080F8B11180F8B02180ED080A7047000065
:10D210002DE9F04782B000284FF0FF0451D0884636
:10D2200000294ED08146D8F800000024C4608460F4
:10D2300044600460D8F800603046FDF7CBF8C2B215
:10D2400048463146102A28BF1022FDF77BF8B8F86F
:10D25000040098F80610A9F818004FF07E5089F8DD
:10D260002410C9F8200061B3A9F14C0408F130057D
:10D27000002600BFA5F12807384604F1740AFDF71F
:10D28000A9F8024650463946FDF75CF8A5F11403AB
:10D290000FCB04F19C0C8CE80F00296835F8042CA6
:10D2A00035F8183CB8F8047050460097FFF796FD23
:10D2B00099F8240001364C34864205F12C05D9D367
:10D2C000002460B202B0BDE8F0870000F0B5B0F80D
:10D2D00044C09FEDAD1ABCF1000F00F052814CF636
:10D2E000CD420CFB02F2530D0127BCF1280F38BFD1
:10D2F00007EB5253D0F848E0022BA3F101024AD3C6
:10D300000EF5C47400234FF4C875266802EE106A47
:10D31000B8EE422AB4EE402AF1EE10FA45DA43F0B4
:10D320000106B7B2BA4236DD07FB05E7D7F88871C8
:10D3300002EE107AB8EE422AB4EE402AF1EE10FA6C
:10D3400032DA43F00206B7B2BA4224DD07FB05E742
:10D35000D7F8887102EE107AB8EE422AB4EE402A6D
:10D36000F1EE10FA20DA43F00306B7B2BA4212DD4A
:10D3700007FB05E7D7F8887102EE107AB8EE422A6B
:10D38000B4EE402AF1EE10FA0EDA04339EB2B24245
:10D3900004F5C864B9DCD3B29B0053FA82F2D20020
:10D3A000ACF1010609E000BF3346DAB2920052FA4E
:10D3B00083F32724DA0004EBC30602EB82040EEBAE
:10D3C0004403D3F8025002EE105AB8EE422AB4EEEB
:10D3D000402AF1EE10FA2BDA90ED061AB4EE401A5C
:10D3E000F1EE10FA5EDAACF10100B9B100EB8002A7
:10D3F0000EEB4202D388128900EE103A9FED631AB9
:10D4000002EE102AB8EE400AB8EE422A80EE010A77
:10D4100082EE011A81ED000A81ED011A00EB800015
:10D420003EF8100000EE100AB8EE400AF0BD00BF52
:10D4300099B1D8889FED553A02EE100A1889B8EED6
:10D44000422A04EE100AB8EE444A82EE032A84EE21
:10D45000033A81ED002A81ED013A002A00F0918023
:10D4600053F8080C01EE100A291AB8EE411A30EEF2
:10D47000410A01EE101AB8EE411A80EE010A33F8A3
:10D480000A0C3EF8141001EE100A091A02EE101AE6
:10D49000B8EEC22AB8EE411A20EE020A30EE010AB6
:10D4A000F0BD00BFB0B290424CD9821A04E000BF78
:10D4B000013A03F10A0345D0D3F8026001EE106A85
:10D4C000B8EE411AB4EE401AF1EE10FAF0DADD6867
:10D4D00002EE105AB8EE422AB4EE402AF1EE10FAEB
:10D4E000E6DBA81B30EE410A01EE100AB8EE411A45
:10D4F00080EE010A18885A8901EE100A121A02EE0B
:10D50000102AB8EEC22AB8EE411A20EE020A30EE16
:10D51000011AB1B3188A9FED1D2A00EE100A588A2D
:10D52000B8EE400A03EE100A80EE020AB8EE433A63
:10D5300083EE022A81ED000AB0EE410A81ED012A54
:10D54000F0BD00BF00EB80003EF8102000EE102A76
:10D55000B8EE401AA9B10EEB4000C288008900EE77
:10D56000102A9FED0A2A03EE100AB8EE400AB8EE20
:10D57000433A80EE020A83EE022A81ED000A81ED31
:10D58000012AB0EE410AF0BD0000000000401C4638
:10D590000146BCEEC00A002081ED050A704700007C
:10D5A0000146002081ED040A704700002DE9F04F8C
:10D5B00081B02DED088B84B050B39FED4B8AB5EE52
:10D5C000400AB7EE00AAF1EE10FAB0EE481AB4EE37
:10D5D0004A0AB0EE4A9AC8BFB0EE401AF1EE10FA0D
:10D5E000D8BFB0EE419AB5EE409A0446F1EE10FA7B
:10D5F00016D10020C4F8AC0122B1C2E90000C2E992
:10D600000200106104B0BDEC088B01B0BDE8F08FE2
:10D61000012004B0BDEC088B01B0BDE8F08F00BF65
:10D6200094ED692A9FED31BA0192B4EE4B2AF1EEE6
:10D6300010FAB8BFB0EE4B2A94ED6A0A84ED692A5D
:10D64000B4EE4B0AF1EE10FAB8BFB0EE4B0A6069C7
:10D6500084ED6A0A00EB400000EE100A04F1280095
:10D66000B8EE400A039004F1600084ED6B0A94ED7B
:10D670000E0A94ED0F1A029094ED213A94ED224A8D
:10D6800094ED347A94ED356AD4E94701D4E95A230C
:10D6900004F1740B04F1AC0604F1C00704F1F805C1
:10D6A0004FF001084FF0000984ED180A84ED191AB3
:10D6B00084ED2B3A84ED2C4A84ED3E7A84ED3F6A6A
:10D6C000C4E95101C4E964230AE000BFB4EE49AAE9
:10D6D0004FF00008F1EE10FAB0EE49AA00F0AA816E
:10D6E0004FF0000A09E000BF0000000017B7D13872
:10D6F000BAF1030FEAD80AF1010AD4ED6B0A66EE1B
:10D70000031A67EE042A72EEE11A60EE872A60EED1
:10D71000834A94ED6A5A64EE223A66EE245A61EE28
:10D72000255A63EE813A61EE222A73EEE53A62EE03
:10D73000852A73EEE22A62EE203A63EE865A65EE9F
:10D74000815A61EE244A75EEA22A64EE854A64EE9F
:10D75000233A67EE015A74EEA22A60EE064A63EE9F
:10D76000813A71EEE51A72EEE32A74EEE53A27EE9D
:10D77000057A74EEA11A37EE237A62EE063A62EE6B
:10D78000414A23EE011A37EE637A60EE053A64EE01
:10D79000205A20EE866A71EE210A24EE000A70EE0D
:10D7A000C00A31EE400A23EE053A30EE430A22EE7B
:10D7B000042A32EE000A37EE637A33EE800A37EE3F
:10D7C000647A34EE800A25EE877A25EE201A26EE5A
:10D7D000000A82EE812A87EE013A80EE010A5FEAB2
:10D7E000C870C4F84C91C4F8989184ED1A2A84ED5D
:10D7F0002D3A84ED400A05D020460021FFF730F88D
:10D80000B0EE408A94F8B00170B994ED050A94ED39
:10D81000081AB8EE400A21EE000AB4EE408AF1EE92
:10D8200010FAC8BFB0EE408A94ED041A94F8B10122
:10D83000B0EE4A0AF0EE480AFEF766F994ED2B5A6C
:10D8400094ED2C6A94ED3F7AD4ED3E0A67EE051A0A
:10D8500060EE862A94ED194A72EEE11A60EE202AF3
:10D8600060EE054A94ED6A2A66EE223A67EE245A83
:10D8700094ED691A64EE255A63EE843A64EE222A26
:10D8800073EEE53A62EE822A73EEE22A60EE013A26
:10D8900063EE875A94ED183A65EE845A64EE244A92
:10D8A00075EEA22A64EE824A66EE233A60EE845A4E
:10D8B00074EEA22A63EE074A63EE843A71EEE51A2B
:10D8C00072EEE32A74EEE53A60EE820A74EEA11A73
:10D8D00070EEA30A61EE073A61EE444A25EE044A6F
:10D8E00070EEE30A63EE023A74EE211A26EE033A72
:10D8F00071EEC31A34EE433A22EE214A25EE022A93
:10D9000033EE422A21EE061A31EE021A33EE811A64
:10D9100070EEE30A34EE811A20EE072A70EEE40A74
:10D9200066EE005A22EE011A65EEA00A81EE043A74
:10D9300082EE841A80EE842A0398029984ED6B0AA1
:10D9400084ED403AB0EE410A84ED2D2A84ED1A1A96
:10D95000FFF7BCFC94ED2D0A58463146FFF7B6FCA4
:10D9600094ED400A38462946FFF7B0FC94ED2C4A66
:10D97000D4ED2D0A94ED405A94ED3F6A94ED191AB6
:10D98000D4ED1A1A24EE052A60EE862A61EE222AC8
:10D9900022EE012A94ED2B3A94ED3E7A32EE222AC1
:10D9A00061EE862A62EE842A72EE822A27EE052A2A
:10D9B00063EE203A94ED180A24EE022A63EE863ACA
:10D9C00061EE233A22EE012A32EE232A60EE213A5A
:10D9D00063EE863A63EE843A33EE822AC2EE223A4E
:10D9E00094ED692A72EE633AF0EEE33AF4EE4B3AC4
:10D9F000F1EE10FA3FF77CAE64EE063A70EE854A1F
:10DA000061EE233A71EEA44A63EEA43AC3EEA22A71
:10DA1000D4ED6A3A73EEE22AF0EEE22AF4EE4B2AF3
:10DA2000F1EE10FA7FF752AEBAF1040FFFF463AED5
:10DA30004CE600BF94F8B001012853D11FEDD60A7F
:10DA4000F5EE401AF1EE10FAB0EE401A0EDBF5EEEC
:10DA5000400AF1EE10FA07DBB5EE405AF1EE10FA8B
:10DA6000B0EE611A3EDA01E0B0EE611AF5EE400A5E
:10DA7000F1EE10FAB5EE405A84ED1A1AB8BFF0EE86
:10DA8000400AC4ED2D0AF1EE10FAB8BFB0EE405ACC
:10DA900031EE200A94ED041A94F8B10130EE05AA93
:10DAA000B0EE490AF0EE480A84ED405AFEF72CF831
:10DAB00094ED1A1A94ED2D2A94ED403A81EE0A1A4B
:10DAC00082EE0A2A83EE0A3A84ED6B0A60EE011AAE
:10DAD00060EE020A20EE035AC4ED1A1AC4ED2D0AB4
:10DAE00084ED405A94ED100A019981EE801A9FED61
:10DAF000A00A0029B5EE401A00F03C81F1EE10FAC0
:10DB0000B0EE402A20DDB7EE002AB4EE421AF1EE64
:10DB100010FA19DA94ED174A94ED165A21EE044AD8
:10DB200094ED153A21EE044A21EE055A21EE055AEC
:10DB300024EE014A94ED142A34EE054A23EE011A2C
:10DB400031EE041A32EE012AB4F84A00B0EE403A3F
:10DB500001EE100AB8EE411A22EE011A84ED131AF2
:10DB600084ED071AC1ED001A94ED232A94ED2D1AC5
:10DB700081EE022AB5EE402AF1EE10FA20DDB7EE72
:10DB8000003AB4EE432AF1EE10FA19DA94ED2A5A6B
:10DB900094ED296A22EE055A94ED284A22EE055AA0
:10DBA00022EE066A22EE066A25EE025A94ED273A24
:10DBB00035EE065A24EE022A32EE052A33EE023AF8
:10DBC000B4F8960002EE100AB8EE422A23EE022ABA
:10DBD00094ED073A84ED262A33EE022A84ED072AD3
:10DBE00081ED011A94ED362A94ED401AB0EE403AD8
:10DBF00081EE022AB5EE402AF1EE10FA20DDB7EEF2
:10DC0000003AB4EE432AF1EE10FA19DA94ED3D5AD7
:10DC100094ED3C6A22EE055A94ED3B4A22EE055AF9
:10DC200022EE066A22EE066A25EE025A94ED3A3A90
:10DC300035EE065A24EE022A32EE052A33EE023A77
:10DC4000B4F8E20002EE100AB8EE422A23EE022AED
:10DC500094ED073A84ED392A33EE022A84ED072A3F
:10DC600081ED021A94ED492A94ED531AB0EE403A30
:10DC700081EE022AB5EE402AF1EE10FA20DDB7EE71
:10DC8000003AB4EE432AF1EE10FA19DA94ED505A44
:10DC900094ED4F6A22EE055A94ED4E4A22EE055A53
:10DCA00022EE066A22EE066A25EE025A94ED4D3AFD
:10DCB00035EE065A24EE022A32EE052A33EE023AF7
:10DCC000B4F82E0102EE100AB8EE422A23EE022A20
:10DCD00094ED073A84ED4C2A33EE022A84ED072AAC
:10DCE00081ED031A94ED5C2A94ED661A81EE022A06
:10DCF000B5EE402AF1EE10FA20DDB7EE000AB4EEE0
:10DD0000402AF1EE10FA19DA94ED634A94ED625A62
:10DD100022EE044A94ED613A22EE044A22EE055ABC
:10DD200022EE055A24EE024A94ED600A34EE054ACA
:10DD300023EE022A32EE042A30EE020AB4F87A0107
:10DD400002EE100AB8EE422A20EE020A94ED072AEB
:10DD500084ED5F0A32EE000A84ED070A81ED041AB1
:10DD6000002004B0BDEC088B01B0BDE8F08F00BF0F
:10DD700000000000F1EE10FAB0EE403A20DDB7EE00
:10DD8000003AB4EE431AF1EE10FA19DA94ED174A9C
:10DD900094ED166A21EE044A94ED153A21EE044AF8
:10DDA00021EE066A21EE066A24EE014A94ED142A59
:10DDB00034EE064A23EE011A31EE041A32EE013A2D
:10DDC00094ED231AB4F84A0080EE812A01EE100A7D
:10DDD000B8EE411A23EE011AB0EE403A84ED131A60
:10DDE000B5EE402AF1EE10FA20DDB7EE003AB4EEBF
:10DDF000432AF1EE10FA19DA94ED2A6A94ED297AA1
:10DE000022EE066A94ED284A22EE066A22EE077A8E
:10DE100022EE077A26EE026A94ED273A36EE076A7A
:10DE200024EE022A32EE062A33EE023A94ED362A26
:10DE3000B4F8960085EE022A04EE100AB8EE444AC1
:10DE400023EE043A84ED263A31EE031AB0EE403A5E
:10DE5000B5EE402AF1EE10FA20DDB7EE003AB4EE4E
:10DE6000432AF1EE10FA19DA94ED3D5A94ED3C6A2A
:10DE700022EE055A94ED3B4A22EE055A22EE066A3E
:10DE800022EE066A25EE025A94ED3A3A35EE065A2B
:10DE900024EE022A32EE052A33EE023A94ED492AA4
:10DEA00094ED534AB4F8E20084EE022A04EE100A1C
:10DEB000B8EE444A23EE043A84ED393A31EE031ABF
:10DEC000B0EE403AB5EE402AF1EE10FA20DDB7EEA2
:10DED000003AB4EE432AF1EE10FA19DA94ED505AF2
:10DEE00094ED4F6A22EE055A94ED4E4A22EE055A01
:10DEF00022EE066A22EE066A25EE025A94ED4D3AAB
:10DF000035EE065A24EE022A32EE052A33EE023AA4
:10DF100094ED5C2A94ED664AB4F82E0184EE022A50
:10DF200004EE100AB8EE444A23EE043A31EE031A26
:10DF300084ED4C3AB5EE402AF1EE10FA20DDB7EE52
:10DF4000000AB4EE402AF1EE10FA19DA94ED634AB1
:10DF500094ED625A22EE044A94ED613A22EE044AAC
:10DF600022EE055A22EE055A24EE024A94ED600A8A
:10DF700034EE054A23EE022A32EE042A30EE020A7B
:10DF8000B4F87A0102EE100AB8EE422A20EE020A34
:10DF900084ED5F0A31EE000A002084ED070A04B028
:10DFA000BDEC088B01B0BDE8F08F00002DE9F04F0B
:10DFB00081B02DED108B82B060B39FEDEF8AB5EE8E
:10DFC000400AB7EE009AF1EE10FAB0EE481AB4EE3D
:10DFD000490AF0EE490AC8BFB0EE401AF1EE10FA55
:10DFE000D8BFF0EE410AF5EE400A98460446F1EE3D
:10DFF00010FA13D10020B8F1000FC4F8AC0100F002
:10E000003084C8E90000C8E90200C8F8100000F038
:10E0100028BC00BFFF2000F024BC00BF94ED0E0A16
:10E0200094ED0F1A94ED213A42F2107084ED180A23
:10E0300084ED191A94ED222A84ED2B3A814238BFDF
:10E040000846B0F5C86F98BF4FF4C860A0F5C86027
:10E0500080B2400841F27B414843400C4EF22552C9
:10E0600000EB8001C0F2040202EB41035B6852F84E
:10E07000111005EE103AB2EE08BA04EE101A25EEB1
:10E080000B6AB0EE08CA36EE0C6A34EE047AB1EED2
:10E0900000DA36EE476A24EE0D4AB1EE08FA84EE55
:10E0A00006EA25EE0F5AC5EE068A6269DFEDB3FA7D
:10E0B000510004EE101A4EF6D431C0F2040101EB07
:10E0C0008000D0ED009A04F12809F1EE69AA04F16C
:10E0D000600A04F1740B04F1AC06B8EE444A01275F
:10E0E0006AEE8EBAF2EE02CAFFEE08DAFBEE00EA42
:10E0F000BAEE00AA84ED2C2A84ED6B4ACDED010A1C
:10E100000BE000BFDDED010A0027B4EE609AF1EEEE
:10E1100010FAB0EE609A00F03381002503E000BFF2
:10E12000082DEFD8013521EE0B4A34EE0C4A30EEC3
:10E13000005A34EE454A20EE0D5A21EE0F6A85EE64
:10E14000045A86EE044A22EE0B6A36EE0C6A33EE6F
:10E15000037A36EE476A22EE0F7A63EE0D0A87EEF7
:10E16000067A80EE866A21EE033AF80734EE477AA3
:10E1700035EE466A87EE066A38EEC47A24EE2A4AFD
:10E1800066EE050A30EE877A66EE280A30EE844A9B
:10E1900069EE860A60EE8E1A31EEC44A20EE855A88
:10E1A00034EE454A36EE695A84EE054A3BEE876AFC
:10E1B00086EE055A24EE2D4A24EE2E6A25EE0F7ABD
:10E1C00037EE066A36EE0B6A25EE2C7A87EE066A83
:10E1D00025EE0C5A24EE0A7A35EE075A34EE044A3C
:10E1E00035EE0F5A84EE054A20EE025A94ED6B7A12
:10E1F00035EE435A26EE411A62EE010A22EE072A54
:10E2000084ED696A23EE043A20EE040A33EE203AE4
:10E2100030EE010A27EE433A25EE041A22EE000AF8
:10E2200083EE013A80EE010A84ED6A4A84ED1A3ADF
:10E2300084ED2D0A05D020460021FEF711FBB0EE3B
:10E24000408A94F8B00170B994ED050A94ED081A6B
:10E25000B8EE400A21EE000AB4EE408AF1EE10FA60
:10E26000C8BFB0EE408A94ED041A94F8B101B0EE44
:10E27000490AF0EE480AFDF747FC94ED691A94ED5F
:10E28000183A94ED194A94ED2B5A94ED2C6A94EDBA
:10E290006A2A24EE055A23EE067A21EE444A37EE26
:10E2A000457A24EE061A25EE025A22EE077A35EE5A
:10E2B000011A23EE022A20EE411A20EE065A32EE0F
:10E2C000042A81EE071A22EE052A82EE072A84ED3F
:10E2D0006B0A48465146B0EE410A84ED1A1A84EDA5
:10E2E0002D2AFEF7F3FF94ED2D0A58463146FEF72E
:10E2F000EDFF94ED180A94ED1A4A94ED2B3A94ED43
:10E300002D5A94ED191A94ED2C2A20EE046A23EE6E
:10E31000057A21EE077A26EE026A36EE077A21EEBA
:10E32000056A64EE020A30EE866A87EE067AD4ED5C
:10E33000690A30EEC77AB0EEC77AB4EE6F7AF1EEC2
:10E3400010FA3FF7EDAE21EE027A74EE050A27EEE1
:10E35000207A87EE066A94ED6A7A37EE466AB0EE66
:10E36000C66AB4EE6F6AF1EE10FA7FF7CBAE092DF4
:10E37000FFF4D8AEC6E600BF0000000017B7D138E2
:10E38000B5EE404AF1EE10FA06DA002094ED6B5A31
:10E390001FED074AA0660AE0B5EE405AF1EE10FA0A
:10E3A00007DA94ED6B4A1FED0C5A84ED1A4A84ED9E
:10E3B0002D5A94ED100AB8F1000F84EE001A1FEDEB
:10E3C000120AB5EE401A00F03581F1EE10FAB0EE07
:10E3D000402A20DDB7EE002AB4EE421AF1EE10FA20
:10E3E00019DA94ED175A94ED166A21EE055A94ED58
:10E3F000153A21EE055A21EE066A21EE066A25EE4F
:10E40000015A94ED142A35EE065A23EE011A31EE24
:10E41000051A32EE012AB4F84A00B0EE403A01EE95
:10E42000100AB8EE411A22EE011A84ED131A84ED97
:10E43000071A88ED004A94ED232A94ED2D1A81EEF7
:10E44000022AB5EE402AF1EE10FA20DDB7EE003ACE
:10E45000B4EE432AF1EE10FA19DA94ED2A5A94ED4B
:10E46000296A22EE055A94ED284A22EE055A22EE38
:10E47000066A22EE066A25EE025A94ED273A35EE38
:10E48000065A24EE022A32EE052A33EE023AB4F896
:10E49000960002EE100AB8EE422A23EE022A94ED0C
:10E4A000073A84ED262A33EE022A84ED072A88ED06
:10E4B000011A94ED362A94ED401AB0EE403A81EEFE
:10E4C000022AB5EE402AF1EE10FA20DDB7EE003A4E
:10E4D000B4EE432AF1EE10FA19DA94ED3D5A94EDB8
:10E4E0003C6A22EE055A94ED3B4A22EE055A22EE92
:10E4F000066A22EE066A25EE025A94ED3A3A35EEA5
:10E50000065A24EE022A32EE052A33EE023AB4F815
:10E51000E20002EE100AB8EE422A23EE022A94ED3F
:10E52000073A84ED392A33EE022A84ED072A88ED72
:10E53000021A94ED492A94ED531AB0EE403A81EE56
:10E54000022AB5EE402AF1EE10FA20DDB7EE003ACD
:10E55000B4EE432AF1EE10FA19DA94ED505A94ED24
:10E560004F6A22EE055A94ED4E4A22EE055A22EEEB
:10E57000066A22EE066A25EE025A94ED4D3A35EE11
:10E58000065A24EE022A32EE052A33EE023AB4F895
:10E590002E0102EE100AB8EE422A23EE022A94ED72
:10E5A000073A84ED4C2A33EE022A84ED072A88EDDF
:10E5B000031A94ED5C2A94ED661A81EE022AB5EEF8
:10E5C000402AF1EE10FA20DDB7EE000AB4EE402A40
:10E5D000F1EE10FA19DA94ED634A94ED625A22EEE4
:10E5E000044A94ED613A22EE044A22EE055A22EEE4
:10E5F000055A24EE024A94ED600A34EE054A23EEF1
:10E60000022A32EE042A30EE020AB4F87A0102EE4F
:10E61000100AB8EE422A20EE020A94ED072A84ED91
:10E620005F0A32EE000A84ED070A88ED041A002022
:10E6300017E100BFF1EE10FAB0EE403A20DDB7EE80
:10E64000003AB4EE431AF1EE10FA19DA94ED174AD3
:10E6500094ED166A21EE044A94ED153A21EE044A2F
:10E6600021EE066A21EE066A24EE014A94ED142A90
:10E6700034EE064A23EE011A31EE041A32EE013A64
:10E6800094ED231AB4F84A0085EE012A01EE100A2F
:10E69000B8EE411A23EE011AB0EE403A84ED131A97
:10E6A000B5EE402AF1EE10FA20DDB7EE003AB4EEF6
:10E6B000432AF1EE10FA19DA94ED2A5A94ED296AF8
:10E6C00022EE055A94ED284A22EE055A22EE066AF9
:10E6D00022EE066A25EE025A94ED273A35EE065AE6
:10E6E00024EE022A32EE052A33EE023A94ED362A5F
:10E6F00094ED404AB4F8960084EE022A04EE100A23
:10E70000B8EE444A23EE043A84ED263A31EE031A79
:10E71000B0EE403AB5EE402AF1EE10FA20DDB7EE49
:10E72000003AB4EE432AF1EE10FA19DA94ED3D5AAC
:10E7300094ED3C6A22EE055A94ED3B4A22EE055ACE
:10E7400022EE066A22EE066A25EE025A94ED3A3A65
:10E7500035EE065A24EE022A32EE052A33EE023A4C
:10E7600094ED492A94ED534AB4F8E20084EE022A6B
:10E7700004EE100AB8EE444A23EE043A84ED393A26
:10E7800031EE031AB0EE403AB5EE402AF1EE10FA3F
:10E7900020DDB7EE003AB4EE432AF1EE10FA19DAB2
:10E7A00094ED505A94ED4F6A22EE055A94ED4E4A7C
:10E7B00022EE055A22EE066A22EE066A25EE025A7B
:10E7C00094ED4D3A35EE065A24EE022A32EE052A31
:10E7D00033EE023A94ED5C2A94ED664AB4F82E01C9
:10E7E00084EE022A04EE100AB8EE444A23EE043AFC
:10E7F00031EE031A84ED4C3AB5EE402AF1EE10FAF0
:10E8000020DDB7EE000AB4EE402AF1EE10FA19DA74
:10E8100094ED634A94ED625A22EE044A94ED613A13
:10E8200022EE044A22EE055A22EE055A24EE024A4E
:10E8300094ED600A34EE054A23EE022A32EE042AF1
:10E8400030EE020AB4F87A0102EE100AB8EE422A5B
:10E8500020EE020A84ED5F0A31EE000A002084ED0A
:10E86000070A40B202B0BDEC108B01B0BDE8F08FDA
:10E8700010B51CF0D3FB2AF045FB002010BD0000B2
:10E8800010B500221146034805F0D0F9024800F007
:10E8900089F910BD003005400004044010B5012284
:10E8A0000021034805F0C2F9024800F04FF910BDFD
:10E8B00000300540000404407047704770477047BF
:10E8C0007047704770477047704770477047704790
:10E8D00070477047704700002DE9F04F85B004463F
:10E8E0000E4615469846DDF838A04FF00009CB4695
:10E8F0003A4A07CA01AF07C704200090B8F1000FD9
:10E9000068D000BF3648844205D03648844202D0E1
:10E910003548844200D104E040F2072133A005F0DD
:10E92000B3F800BF00BF0EB1012E00D104E04FF4D8
:10E9300002712EA005F0A8F800BF00BFBAF1000FC9
:10E9400002D0BAF1010F00D104E040F2092127A062
:10E9500005F09AF800BF04F10C0000EB86071430B4
:10E9600004902046C0F3872001A951F820000540FB
:10E97000BAF1010F29D138682843386022E005F048
:10E980000100B8B100BF18F80B00052800D304E05F
:10E9900040F2172115A005F077F800BF18F80B100A
:10E9A000049800F80910B9F1100F03D20BF101001F
:10E9B00000F0FF0B6D08B9F1100F03D209F101004F
:10E9C00000F0FF09002DDAD102E03868A843386072
:10E9D00000200090009805B0BDE8F08F90BE0400C4
:10E9E0000000044000040440000804402E2E5C6433
:10E9F00072697665725C7372635C68633332663425
:10EA000061305F6164632E630000000010B5002276
:10EA10000621034805F00AF9024800F0C3F810BDCA
:10EA2000003005400008044010B5012206210348CB
:10EA300005F0FCF8024800F089F810BD00300540F0
:10EA40000008044070B505460C460426002C65D02D
:10EA500000BF3348854205D03248854202D0324853
:10EA6000854200D104E04FF4A57130A005F00CF808
:10EA700000BF00BF208840B12088012805D0208831
:10EA8000022802D02088032800D104E040F24B1174
:10EA900026A004F0F9FF00BF00BF6088202804D042
:10EAA0006088102801D0608800B904E04FF4A67196
:10EAB0001EA004F0E9FF00BF00BFA08810B1A0882D
:10EAC000402800D104E040F24D1118A004F0DCFF12
:10EAD00000BF00BFE08810B1E088802800D104E0CA
:10EAE0004FF4A77111A004F0CFFF00BF00BF208931
:10EAF00010B12089042800D104E040F24F110BA08E
:10EB000004F0C2FF00BF208861880843A188084341
:10EB1000E188084368802089A8800026304670BDBF
:10EB20000000044000040440000804402E2E5C64F1
:10EB300072697665725C7372635C686333326634E3
:10EB400061305F6164632E630000000010B504460D
:10EB500000BF0948844205D00848844202D00848D2
:10EB6000844200D104E040F2935106A004F08CFFEF
:10EB700000BF0120207010BD0000044000040440CC
:10EB8000000804402E2E5C6472697665725C7372B4
:10EB9000635C68633332663461305F6164632E6343
:10EBA0000000000010B5044600BF0948844205D0AB
:10EBB0000848844202D00848844200D104E040F270
:10EBC000A25106A004F060FF00BF0020207010BD1D
:10EBD0000000044000040440000804402E2E5C6441
:10EBE00072697665725C7372635C68633332663433
:10EBF00061305F6164632E63000000000146042001
:10EC000031B100220A804A808A80CA800A810020AD
:10EC100070472DE9FF4104460D461646002715E0D2
:10EC2000102229466846FBF78DFB214628460FF047
:10EC3000AAFF04F1B001284620F0D8FF102269464F
:10EC400004F1B000FBF77EFB10351037B742E7D375
:10EC5000BDE8FF8170B504460D46214628460FF0F9
:10EC600092FF70BD70B504460D462146284602F05D
:10EC70007DFC70BD30B589B005460020059006903A
:10EC800007900890019002900390049000240B4A92
:10EC900007CA05AB07C3019500BF01A8005D05A920
:10ECA000095D484001A90855601CC0B204461028FF
:10ECB000F3DB034800F006F809B030BD5004014012
:10ECC0008030FE1F70B504460D462946204610F0E0
:10ECD00007FA70BD70B504460E461546314620460B
:10ECE00010F0FEF91022294604F1B000FBF72AFBD0
:10ECF00070BD000000B587B00CA207CA04AB07C303
:10ED00000DA207CA01AB07C301200E4A00210090E3
:10ED10000D48FFF7E1FD012001AB4FF6F072002135
:10ED200000900A48FFF7D8FD07B000BD2323232336
:10ED300023232323232300002323232323232323E9
:10ED400023232323F0430D00000804400004044063
:10ED500000B58DB000BF25482549086100BF0121DD
:10ED60004FF4103013F0A4F801214FF4103013F0D9
:10ED70009FF800BF1D48401E1D49086100BF4FF4A9
:10ED8000F47206211B4805F063FB05A805F0A4FBFF
:10ED90004FF4805005901420099001200A90000241
:10EDA0000890154807901548069001200B90042004
:10EDB0000C9005AA06210F4805F022F801A805F0DD
:10EDC00005FA1020019014200290202003901420B6
:10EDD000049001AA0621074805F074F900F062F8D2
:10EDE0000121044804F0A2FF0DB000BD0100A5A55B
:10EDF0000080044000300540DE1BFE1F5008044028
:10EE000000B58DB000BF22482249086100BF012132
:10EE10004FF4103013F04CF800BF1D48401E1D4940
:10EE2000086100BF4FF4F27200211B4805F010FB8F
:10EE300005A805F051FB4FF4805005901020099073
:10EE400001200A9000020890144807901448069088
:10EE500001200B9004200C9005AA00210E4804F01C
:10EE6000CFFF01A805F0B2F91020019002902020F8
:10EE700003901020049001AA0021074805F022F910
:10EE800000F030F80121044804F050FF0DB000BD3F
:10EE90000100A5A50080044000300540061CFE1FAF
:10EEA000500404401CB52E20ADF800000520ADF83C
:10EEB00002000A48019068460BF06EFD4FF4800195
:10EEC000074804F0FBFE052020F0FAFE042105208F
:10EED00020F07EFF052020F031FF1CBDE93B020041
:10EEE000003005401CB52820ADF800000620ADF824
:10EEF00002000A48019068460BF04EFD4FF4803145
:10EF0000074804F0DBFE062020F0DAFE042106208C
:10EF100020F05EFF062020F011FF1CBDA53B020083
:10EF2000003005400EB56846FFF768FE4020ADF89A
:10EF300004000020ADF80600ADF802000120ADF895
:10EF400000000121042013F07BF80121022013F0BE
:10EF500077F869460348FFF775FD69460248FFF7F1
:10EF600071FD0EBD0008044000040440034804493C
:10EF7000086004480449086070470000EF8F0200F1
:10EF80000002FE1F199002000402FE1F10B5FFF7D9
:10EF9000C9FFFFF7AFFEFFF7DBFEFFF731FF24F0FD
:10EFA00051FD10BD70B504460B46002013E0002152
:10EFB0000DE0250105EB80050D44555D03EB800652
:10EFC000765C754003EB800675544D1CE9B204294C
:10EFD000EFDB451CE8B20428E9DB70BD10B51488EE
:10EFE00041F824301488641C14801488844201DBA6
:10EFF0000024148010BDF0B502460B460027BC4625
:10F00000002400260025032B01D20020F0BD166845
:10F01000012107E052F82100B04202DD52F82160E0
:10F020000F46491C9942F5D31568012107E052F8B3
:10F030002100A84202DA52F821508C46491C99421C
:10F04000F5D3B54201D12846E0E7002042F82C0074
:10F0500042F82700002103E052F821000444491C33
:10F060009942F9D3981EB4FBF0F42046CEE7000095
:10F0700010B513F06BFC0021102009F051FE0021A7
:10F08000102009F04DFE0021042009F049FE22F075
:10F090002BFF294800F010FD2AF03AFF2BF0BCF8B6
:10F0A000012412F017F9044624B929F096FF012033
:10F0B000224908702148007808B928F09FFD1F48B0
:10F0C000007830B91E48407820F00400001D1C492B
:10F0D00048701EF0DBFE09F044FCFFF747FFFFF726
:10F0E00055FF15F08BF92BF079F92BF041F905F06C
:10F0F000A3FB14A020F088FD0AF014FA10F082F8A7
:10F1000012F00AFE00F0CAF808F0ECFC13F0D3FC91
:10F110002BF03CFF10F0A0F81AF0FCFE1BF02CFCCA
:10F12000012024F0F7FF19200949A1F82A0CA1F8C1
:10F130002C0C1EF069FC10BDBC17FE1F4908FE1FF9
:10F140004508FE1F72756E20737461720D0A00000F
:10F15000ACA7FE1F704770B50C46F0EE400A0021C8
:10F16000651EAAB201EB81050544D5F8015000EEF9
:10F17000105AB4EEE00AF1EE10FA07D201EB810565
:10F18000455700EE105AB8EEC01A7DE002EB82053A
:10F190000544D5F8015000EE105AB4EEE00AF1EE45
:10F1A00010FA07DD02EB8205455700EE105AB8EE63
:10F1B000C01A69E05FE08D1805EBD576C6F34F0302
:10F1C00003EB83050544D5F8015000EE105AB4EE68
:10F1D000E00AF1EE10FA01DD194615E003EB8305B4
:10F1E0000544D5F8015000EE105AB4EEE00AF1EEF5
:10F1F00010FA01D21A4607E003EB8305455700EEEB
:10F20000105AB8EEC00A70BD4D1C954233D102EBC6
:10F210008205455701EB81068657AD1B00EE105A5B
:10F22000F8EEC01A01EB81050544D5F8015000EE57
:10F23000105A30EE600A21EE802A01EB8105054468
:10F24000D5F8015000EE105A02EB82050544D5F8BE
:10F25000015001EE905A30EE610AC2EE001A01EB45
:10F260008105455700EE105AB8EEC00A31EE801AFB
:10F27000B0EE410AC7E791429DDD01EB810545579C
:10F2800000EE105AB8EEC01AB0EE410ABBE710B556
:10F2900008F0E2FB08F0CAFB10BD000000B587B023
:10F2A0000121C80712F08EFE68461EF06DF802209C
:10F2B00002900020039041F26F7005906946064865
:10F2C0001DF0DCFBFFF7E3FF00F008F802481DF03B
:10F2D000FDFF07B000BD0000007C024010B520F02B
:10F2E000EDF920F0D5F910BD10B500F001F810BD12
:10F2F000704770B503460C460021002000BF07E0B0
:10F300005D5C665CB54201D0012003E04D1CA9B2F2
:10F310009142F5DB00BF70BD30B502460C46154684
:10F320000023002100BF03E0605C0344481C81B25D
:10F330009142F9DBD8B230BD7047704710B5044632
:10F34000642101201BF0E2FBA04201D8012010BD86
:10F350000020FCE710B51648007850B10020144991
:10F36000087014490860144914480068C01D1AF058
:10F370009DFD16E00F480068642805D10E490F482E
:10F380000068401C1AF092FD0A480068C82804D2A0
:10F3900008480068401C07490860074900201BF026
:10F3A0005DFC00201BF042FC0028E3D010BD0000F3
:10F3B0003807FE1FE007FE1F90A0FE1F3C07FE1F40
:10F3C00070B50546012600249D4C9E480078002813
:10F3D00044D04FF493109C4908600020994908706C
:10F3E0009A490968487900F043F999490880964894
:10F3F0000068008B974908809748007818B19748B3
:10F40000007800B9BDB10020944908708F480068A9
:10F41000C078012802D18F48008800E0012090497F
:10F4200008808A480068C078012800D100E00020E8
:10F430008C4908700DE085480068C078012803D029
:10F4400082480068C07820B980480068C078854943
:10F4500008707E48006840787F490870E4E0784C86
:10F460008048007800286DD17D4800887949098856
:10F4700088423FDC754909680879FFF75FFF60B192
:10F4800071480068816901201BF040FB86B2701E44
:10F4900000EB800004EB400406E071480088401E49
:10F4A00000EB800004EB400400201BE06749096882
:10F4B000C98800EE101AB8EE400A9FED6B1AC0EE34
:10F4C000010A04EB4001098800EE101AB8EE400A68
:10F4D00020EE800ABCEEC00A10EE101A634A22F831
:10F4E0001010401C0528E1D35D480088401C5C4991
:10F4F000088095E055480068C078022810D10120A6
:10F500005849087053480088554908805148008878
:10F5100000EB80004A4901EB4000A0F10A047FE0C3
:10F520004A480068807820B101204D490880444C49
:10F5300076E00120494908704C4800210160416093
:10F5400001816DE04648008800283FDD3F49096899
:10F550000879FFF7F3FE60B13B480068816901203C
:10F560001BF0D4FA86B2701E00EB800004EB40045E
:10F5700006E03B480088401E00EB800004EB40049E
:10F5800000201BE031490968C98800EE101AB8EE66
:10F59000400A9FED351AC0EE010A04EB40010988CC
:10F5A00000EE101AB8EE400A20EE800ABCEEC00A47
:10F5B00010EE101A2D4A22F81010401C0528E1D335
:10F5C00027480088401E2649088029E01F48006817
:10F5D0008078E8B11D480068C078022807D1002073
:10F5E0002049087001201E490880154C18E00120B0
:10F5F0001C49087017480088194908801548008878
:10F6000000EB80000E4901EB4000A0F10A0407E086
:10F6100001201249087015480021016041600181F4
:10F62000124900201BF01AFB00201BF0FFFA28B93A
:10F6300006480068407802283FF411AF70BD000012
:10F64000806012003807FE1FD407FE1F3C07FE1F14
:10F650004007FE1FDA07FE1FDE07FE1FDF07FE1F43
:10F66000DC07FE1FD807FE1F00007A4486A0FE1F9D
:10F6700070B52DED048B04460125052C01DD052018
:10F6800000E020460446C4F10500FBF767F841ECB2
:10F69000190BB0EE491AF0EE691A9FED080B20F035
:10F6A000DBFFB0EE408AF0EE608A51EC180BFBF7FE
:10F6B0009EF885B22846BDEC048B70BD00000000AA
:10F6C0000000004070B586B005460C46002005904D
:10F6D000ED4800680490EC4840680390EA48806870
:10F6E0000290E948C0680190002600BF04F0E06085
:10F6F000E8B104F0E060B0F1807F18D004F0E06081
:10F70000B0F1007F13D004F0E060B0F1407F0ED084
:10F7100004F0E060B0F1806F09D004F0E060B0F177
:10F72000A06F04D004F0E060B0F1C06F00D104E03D
:10F7300040F24761D5A004F0A7F900BF00BF04F470
:10F74000E000E8B104F4E000B0F5801F18D004F444
:10F75000E000B0F5001F13D004F4E000B0F5401F46
:10F760000ED004F4E000B0F5800F09D004F4E000FE
:10F77000B0F5A00F04D004F4E000B0F5C00F00D144
:10F7800004E04FF4C961C1A004F07EF900BF00BFDE
:10F7900004F00700B8B104F00700012813D004F00A
:10F7A000070002280FD004F0070003280BD004F054
:10F7B0000700042807D004F00700052803D004F050
:10F7C0000700062800D104E040F24961AFA004F030
:10F7D0005BF900BF00BF04F07000B8B104F0700026
:10F7E000102813D004F0700020280FD004F070000F
:10F7F00030280BD004F07000402807D004F07000CF
:10F80000502803D004F07000602800D104E040F2DA
:10F810004A619EA004F038F900BF00BF04F4E06024
:10F82000E8B104F4E060B0F5807F18D004F4E06043
:10F83000B0F5007F13D004F4E060B0F5407F0ED047
:10F8400004F4E060B0F5806F09D004F4E060B0F536
:10F85000A06F04D004F4E060B0F5C06F00D104E004
:10F8600040F24B6189A004F00FF900BF00BF04F41F
:10F87000E040E8B104F4E040B0F5805F18D004F453
:10F88000E040B0F5005F13D004F4E040B0F5405F15
:10F890000ED004F4E040B0F5804F09D004F4E0400D
:10F8A000B0F5A04F04D004F4E040B0F5C04F00D153
:10F8B00004E040F24C6175A004F0E6F800BF00BF20
:10F8C00004F4E020E8B104F4E020B0F5803F18D063
:10F8D00004F4E020B0F5003F13D004F4E020B0F5CC
:10F8E000403F0ED004F4E020B0F5802F09D004F49E
:10F8F000E020B0F5A02F04D004F4E020B0F5C02F34
:10F9000000D104E040F24D6160A004F0BDF800BFFA
:10F9100000BF05F07F0000B104E040F24E615BA043
:10F9200004F0B2F800BF00BF6048008800F001009A
:10F9300000B104E040F24F6154A004F0A5F800BF0C
:10F940005B48007800F0070005281CD100BF4E4836
:10F95000006900F0010000B104E040F256614BA0E4
:10F9600004F092F800BF0126524847490860C012CF
:10F9700048608860C86000BF0598401C05900598E5
:10F98000B0F5007FF8D305F0010038B148482638BB
:10F99000006A64F3020046492639086205F0020055
:10F9A00050B143482638006A20F0700004F070011E
:10F9B00008433F492639086205F0040050B13C482D
:10F9C0002638006A20F4E06004F4E0610843384916
:10F9D0002639086205F0080050B135482638006A1B
:10F9E00020F4E04004F4E04108433149263908623C
:10F9F00005F0100050B12E482638006A20F4E020AF
:10FA000004F4E02108432A492639086205F0200061
:10FA100050B127482638006A20F4E00004F4E001E1
:10FA2000084323492639086205F0400050B12048B8
:10FA30002638006A20F0E06004F0E06108431C49C9
:10FA4000263908620020059000BF0598401C0590EB
:10FA50000598B0F5007FF8D3012E12D10A49049819
:10FA6000086003984860029888600198C860002088
