:020000040001F9
:108000007FB5054600200090019002900390002467
:108010001021104802F0BDF90E48056001460E48D7
:1080200007F072FD0D4A07CA8DE8070000BF094836
:10803000005D1DF80410484006490855601CC0B298
:1080400004461028F3DB044807F05EFD014804B045
:1080500070BD00006031FE1F9030FE1F50040140D3
:020000040001F9
:10A00000E094FF1F99A20100ED32030033AE02007D
:10A010000D32030075010200192204000000000047
:10A020000000000000000000000000001DC303004D
:10A030001157020000000000D142030019DD0300A7
:10A0400049C3020059C3020069C3020079C3020078
:10A0500089C3020099C30200A9C30200B9C3020068
:10A06000C9C30200D9C30200E9C30200F9C3020058
:10A0700009C4020019C4020029C4020039C4020044
:10A0800049C4020059C4020069C4020079C4020034
:10A0900089C4020099C40200A9C40200B9C4020024
:10A0A000C9C40200D9C40200E9C40200F9C4020014
:10A0B00009C5020019C5020029C5020039C5020000
:10A0C00049C5020059C5020069C5020079C50200F0
:10A0D00089C5020099C50200A9C50200B9C50200E0
:10A0E000C9C50200D9C50200E9C50200F9C50200D0
:10A0F00009C6020019C6020029C6020039C60200BC
:10A1000049C6020059C6020069C6020079C60200AB
:10A1100089C6020099C60200A9C60200B9C602009B
:10A12000C9C60200D9C60200E9C60200F9C602008B
:10A1300009C7020019C7020029C7020039C7020077
:10A1400049C7020059C7020069C7020079C7020067
:10A1500089C7020099C70200A9C70200B9C7020057
:10A16000C9C70200D9C70200E9C70200F9C7020047
:10A1700009C8020019C8020029C8020039C8020033
:10A1800049C8020059C8020069C8020079C8020023
:10A1900089C8020099C80200A9C80200B9C8020013
:10A1A000C9C80200D9C80200E9C80200F9C8020003
:10A1B00009C9020019C9020029C9020039C90200EF
:10A1C00049C9020059C9020069C9020079C90200DF
:10A1D00089C9020099C90200A9C90200B9C90200CF
:10A1E000C9C90200D9C90200E9C90200F9C90200BF
:10A1F00009CA020019CA020029CA020039CA0200AB
:10A2000049CA020059CA020069CA020079CA02009A
:10A2100089CA020099CA0200A9CA0200B9CA02008A
:10A22000C9CA0200D9CA0200E9CA0200F9CA02007A
:10A2300009CB020019CB020029CB020039CB020066
:10A2400049CB020099CC020085D1020039D6020028
:10A2500091D9020039DD0200C1E00200FDE20200F6
:10A260000DE702001DEB02005DEE0200E5F30200C7
:10A27000C9F8020055FC0200C9FF02006502030094
:10A28000DFF810D000F088FC0048004715F7010007
:10A29000AFF30080E094FF1F064880470648004760
:10A2A000FEE7FEE7FEE7FEE7FEE7FEE7FEE7FEE786
:10A2B000FEE7FEE7B1DE030081A201002DE9F05FB9
:10A2C0000546002092469B46884606468146402425
:10A2D0001BE0284641464746224600F0F5FA534621
:10A2E0005A46C01A914110D311461846224600F032
:10A2F000DCFA2D1A67EB01084F46224601200021A7
:10A3000000F0D3FA17EB00094E41201EA4F101041E
:10A31000DFDC484631462A464346BDE8F09F000050
:10A320000649074A0868504343F23902104408605E
:10A33000400870470149086070470000480BFE1F45
:10A340006D4EC64110B5431A934209D2831888183E
:10A3500003E010F8011D03F8011D521EF9D210BDD3
:10A3600040EA01039B0703D009E008C9121F08C097
:10A37000042AFAD203E011F8013B00F8013B521E17
:10A38000F9D210BDD2B201E000F8012B491EFBD278
:10A3900070470022F6E710B513460A4604461946F0
:10A3A000FFF7F0FF204610BD10B5044604E00B781F
:10A3B00000F8013B03B1491C521EF8D2204610BDE3
:10A3C000CAB2401E10F8011F8A4202D00029F9D1FA
:10A3D00000207047421C10F8011B0029FBD1801A95
:10A3E000704730B504460020034600E05B1C9342F2
:10A3F00003D2E05CCD5C401BF8D030BD034611F8C1
:10A40000012B00F8012B002AF9D11846704730B50E
:10A4100003461D783DB10A4612F8014B1CB1AC420F
:10A42000FAD15B1CF5E7181A30BD30B5054600209F
:10A4300008E00A4602E0A34207D0521C1378002B22
:10A44000F9D1401C2C5C002CF3D130BD2DE9FE4F1E
:10A45000804681EA0300C00F0C46009021F00041C5
:10A4600023F00045B8EB0200A94105D24046214641
:10A4700090461C460B46024623F00040104347D04E
:10A48000270DC7F30A00C3F30A510290401A019046
:10A4900040286BDAC3F3130040F4801B0098924607
:10A4A00020B10023D2EB030A63EB0B0B0198594652
:10A4B000C0F14002504600F0F8F906460D465046FD
:10A4C0005946019A00F010FA10EB0800614100248F
:10A4D00087EA115284EAE7731A4340D0009A62B3C4
:10A4E000019A012A4FEA075215DC001B61EB0201B9
:10A4F0004FF0004202EA0752CDE90042001C41F54C
:10A50000801132462B4600F047FA03B0BDE8F08FC9
:10A5100040462146F9E7001B61EB0201001C41F5B2
:10A52000801300185B412018A2F5001747EB0301C8
:10A5300040EAD570B6196D4111E06D084FEA360654
:10A5400045EAC0754FEA0752001B61EB0201001C8F
:10A5500041F5801149084FEA300000195141324657
:10A560002B4603B0BDE8F04F00F007BA0098012277
:10A5700040000023D0EB020263EBE0730098214619
:10A580004FEAE074B8EB000061EB0401E9E783F007
:10A5900000435BE781F0004158E72DE9FE4F81EA77
:10A5A000030404F0004421F0004100944FF0000B3C
:10A5B00023F0004350EA01045ED052EA03045BD06A
:10A5C000C3F30A54C1F30A552C44A4F2F3340194A2
:10A5D000A0FB0254C1F3130141F48011C3F3130330
:10A5E00043F4801301FB024400FB034E840A970AE4
:10A5F00044EA815447EA8357A4FB076802958D0A11
:10A6000005FB07854FEA932C04FB0C542705029D9C
:10A610004FEA065847EA1637B5EB08056EEB070C0C
:10A62000870E920E47EA811742EA8312A7FB0201C6
:10A63000B6EB0B0164EB00042B0D43EA0C335E1800
:10A6400044EB1C50DA465146E7FB0201C5F3130404
:10A650004FEA0B3343EA14534FEA0432019C43EAB6
:10A660000603A4F10C040294009CCDE900B400F0B0
:10A6700093F903B0BDE8F08F00200146F9E72DE91A
:10A68000F04D81EA030404F0004B21F0004514462C
:10A690004FF0000A23F0004150EA050220D054EAAE
:10A6A00001021DD0C5F30A570246C5F31303C1F3D7
:10A6B0001300C1F30A5640F4801543F48013A7EB4E
:10A6C0000608101BD64608F2FD3873EB050002D3CE
:10A6D00008F1010801E092185B41B8F1000F03DABC
:10A6E00000200146BDE8F08D00204FF480110646A1
:10A6F00084460EE0171B73EB050705D3121B63EBB3
:10A70000050306434CEA010C49084FEA3000921851
:10A710005B4150EA0107EDD152EA030012D082EA10
:10A72000040083EA0501084305D0101BAB4106D2A3
:10A730000122002306E000224FF0004302E06FF008
:10A74000010253101AEB06004CEB085110EB0A0003
:10A7500041EB0B01BDE8F04D00F00FB90EB5C10F94
:10A7600080EAE0700844CA07002140F233438DE8D4
:10A770000E000A460B4600F00FF903B000BD0EB5FF
:10A7800040F2334102910021CDE900110A460B4607
:10A7900000F002F903B000BD0EB540F23342029260
:10A7A0000022CDE90022134600F0F6F803B000BD08
:10A7B00070B5C1F30A5201F000450024C1F3130142
:10A7C00040F2FF3341F480119A4201DA002070BD5B
:10A7D00040F233439A42A2F2334203DC524200F089
:10A7E00073F800E090402C43F1D0404270BDC1F3BB
:10A7F0000A5210B5C1F3130140F2FF3341F4801146
:10A800009A4201DA002010BD40F233439A42A2F28C
:10A81000334203DC524200F057F810BD904010BDA7
:10A8200000F0004230F000400AD0C10D01F5607127
:10A83000C0F3160042EA0151C208400711437047B5
:10A8400000200146704701F0004330B421F0004180
:10A8500050EA010206D00A0DA2F56072C1F313019D
:10A86000002A02DC30BC00207047440F44EAC104D7
:10A87000C100E01830BC00EBC25000F047B830B562
:10A880000B46014600202022012409E021FA02F5AE
:10A890009D4205D303FA02F5491B04FA02F5284448
:10A8A000151EA2F10102F1DC30BD202A04DB203AA2
:10A8B00000FA02F1002070479140C2F1200320FA13
:10A8C00003F3194390407047202A04DB203A21FA11
:10A8D00002F00021704721FA02F3D040C2F12002B9
:10A8E0009140084319467047202A06DBCB17203ACF
:10A8F00041FA02F043EAE07306E041FA02F3D04085
:10A90000C2F1200291400843194670470029A8BFB0
:10A910007047401C490008BF20F00100704710B488
:10A92000B0FA80FC00FA0CF050EA010404BF10BC3D
:10A93000704749B1CCF1200421FA04F411FA0CF16A
:10A9400018BF012121430843A3EB0C01CB1D4FEAA3
:10A9500000614FEA102042BF002010BC704700EB9E
:10A96000C35010440029A4BF10BC7047401C4900CC
:10A9700008BF20F0010010BC704710B5141E73F121
:10A98000000408DA401C41F1000192185B411A43AF
:10A9900001D120F0010010BD2DE9F04D92469B46FB
:10A9A00011B1B1FA81F202E0B0FA80F220329046A1
:10A9B000FFF77BFF04460F4640EA0A0041EA0B011D
:10A9C00053465A46084313D0114653EA010019D0A2
:10A9D000C8F140025046FFF777FF05460E46504645
:10A9E00059464246FFF761FF084305D0012004E0C5
:10A9F00020463946BDE8F08D0020054346EAE07662
:10AA00002C4337430A986305E40AA0EB08000022B0
:10AA1000FD0A44EA47540A3002D500200146E9E71E
:10AA2000010510196941DDE9084500196941BDE8D2
:10AA3000F04DA2E770B521F0004303430CD0C1F301
:10AA40000A550024D5EB040564EB0403D617AD1AB0
:10AA5000B34102DB0020014670BD201841EB0251DA
:10AA600070BD2DE9F04D00231A461B1A8A4103DB05
:10AA700000200146BDE8F08DC1F30A52C1F3130175
:10AA800041F480154FF0000BD10702D100186D4141
:10AA9000521E0027044640F2FF11384601EB620ABD
:10AAA0003E468046024600204FF48011FFF70CFF1F
:10AAB000C2197141BB1846EB0100B4EB030C75EBF6
:10AAC000000C04D3E41A65EB000517460E46241962
:10AAD00008F101006D4180463428E3DDF91946EBA9
:10AAE0000600091BA84103D24FF0FF32134601E0D4
:10AAF000002213461BEB070046EB0A51BDE8F04D60
:10AB0000FFF73BBFC1F30A52C1F3130140F2FF3319
:10AB100041F480119A4202DA00200146704740F267
:10AB200033439A42A2F2334202DC5242FFF7CCBED8
:10AB3000FFF7BBBE30B5041E71F1000404DB4FF01B
:10AB40000044404264EB0101141E73F1000405DB74
:10AB50001C464FF00043524263EB04038B4208BF94
:10AB6000824230BD30B5041E71F1000404DB4FF0A9
:10AB70000044404264EB0101141E73F1000405DB44
:10AB80001C464FF00043524263EB0403994208BF56
:10AB9000904230BD00207047064C074D06E0E0684B
:10ABA00040F0010394E8070098471034AC42F6D314
:10ABB000FFF76AFBDC3C0500FC3C050070B58C1817
:10ABC00010F8015B15F0070301D110F8013B2A11C1
:10ABD00006D110F8012B03E010F8016B01F8016BAE
:10ABE0005B1EF9D12B0705D40023521E0DD401F8AA
:10ABF000013BFAE710F8013BCB1A921C03E013F873
:10AC0000015B01F8015B521EF9D5A142D8D30020A7
:10AC100070BD0000B0B52DED028B054690F8240004
:10AC200010B31C46B0EE408A022823D001282DD153
:10AC300095ED050A95ED082A95ED041AB8EE400A3F
:10AC400095F8B10162EE000AB0EE480A01F000F991
:10AC5000002C85ED6B0A18BF84ED000A002460B259
:10AC6000BDEC028BB0BD00BFFF2460B2BDEC028B17
:10AC7000B0BD00BF2846B0EE480A0022234600249B
:10AC800004F0E6F860B2BDEC028BB0BD05F5D273FE
:10AC900005F5D4720846B0EE600A194600F024F8B3
:10ACA00095F8240003280DD0052817D12846B0EECA
:10ACB000480A00212246002400F054FA60B2BDEC9C
:10ACC000028BB0BD2846B0EE480A0021224600247F
:10ACD00003F0BEFB60B2BDEC028BB0BD002460B2DD
:10ACE000BDEC028BB0BD00002DE9F04381B02DED2D
:10ACF000108B42F21073984238BF0346B3F5C86F09
:10AD000098BF4FF4C863A3F5C86080B2400841F211
:10AD10007B4700FB07F658087843400C322700FBBE
:10AD20001733700C9BB201EE103A42F64D0300EB64
:10AD30008007C0F2050353F8175003EB470703EEF3
:10AD4000105AD7F80A50B8EE411A02EE105A32EEF5
:10AD5000434A9FED802A24EE014A84EE024A894646
:10AD60000121B5EE400A9046B0EE408A01EB564113
:10AD7000F1EE10FA33EE040A1AD101EB810103EB74
:10AD800041017868496803EE100A04EE101A34EEA7
:10AD9000434A24EE011A81EE021A89ED000A33EECD
:10ADA000010A88ED000ABDEC108B01B0BDE8F0830C
:10ADB00001EB810203EB42027B68526803EE103A1A
:10ADC00004EE102A34EE434A24EE014A84EE024A8D
:10ADD00043F63822C0F2050202EB800090ED005AE3
:10ADE00002EB810090ED006AB2EE08AA36EE456AE9
:10ADF00026EE011AB0EE089A81EE021A30EE007AC1
:10AE0000B1EE08BA33EE043A23EE0A4A34EE094AA8
:10AE100034EE472A23EE0B3A83EE023AB1EE004AB3
:10AE200020EE040A80EE020AB7EE00FA35EE01EADF
:10AE30002EEE0E1A71EE0F8A83EE28CA21EE031A47
:10AE400081EE28DA2EEE000A30EE430A3CEE000ACC
:10AE50003DEE000A10EE100AFFF7E2FC2EEE080AA3
:10AE6000044610EE100A0D46FFF7DAFC8FEE280AB2
:10AE700007460E4610EE100AFFF7D2FC41EC180B05
:10AE8000B0EE480AF0EE680A29F030FC53EC102BC3
:10AE900038463146FFF781FB02460B4620462946DD
:10AEA000FFF775FB04461EEE100A0D46FFF7B8FCCF
:10AEB00002460B4620462946FFF7E1FBFFF7C3FC9D
:10AEC0003CEE0D0A0EEE100A10EE100AFFF7A8FC79
:10AED000B0EE480AF0EE680A04460D4629F006FC7A
:10AEE00053EC102B38463146FFF757FB22462B46D2
:10AEF000FFF74DFBFFF7A7FC00EE100ABFEE082A94
:10AF000020EE020ABBEE002A20EE022A2EEE0B3AB9
:10AF1000B2EE021A33EE022A2EEE011A32EE0A2A9D
:10AF2000BAEE003A81EE021A30EE002A20EE030A51
:10AF30002EEE093A33EE000A30EE0B0A82EE000ADA
:10AF400089ED001A88ED000ABDEC108B01B0BDE858
:10AF5000F08300BF000048422DED0E8B91ED004ABA
:10AF600091ED015A91ED022A91ED033A91ED040A17
:10AF700091ED051A34EE056AF7EE001A71EEC60A75
:10AF800032EE036A31EEC67A30EE016A31EEC66AFD
:10AF900067EE012A63EE063A73EEE24A66EE052A90
:10AFA00061EE203A73EEE25A60EE832A65EE073ACC
:10AFB00073EEE26A62EE252A64EE243A73EEA22A68
:10AFC00060EE263A9FED548A73EEA27AF4EE487A48
:10AFD000D1ED062AD1ED073AF1EE10FA1ADD9FED18
:10AFE0004F8AF4EE487AF1EE10FA13DADFED494AAF
:10AFF000F0EE647AB0EE648AF0EE645AB0EE649AD1
:10B00000B0EE64AAF0EE646AB0EE64BAB0EE64CA60
:10B0100038E000BF81EEA7CA22EE068A27EE009A2A
:10B0200039EE488A63EE007A22EE019A39EE679A89
:10B0300060EE207A26EE04AA3AEE67AA61EE047A60
:10B0400020EE05BA3BEE67BA64EE077A20EE82DAAC
:10B050003DEE67DA65EE027A24EE03EA3EEE67EA39
:10B0600064EE8C4A68EE0C7A29EE0C8A65EE8C5AF6
:10B070002AEE0C9A2BEE0CAA66EE8C6A2DEE0CBA18
:10B080002EEE0CCA32EEA3DAC2EEA32A71EECD1A6E
:10B09000C1EEA31A64EEA23A73EEA73A68EE214A13
:10B0A00074EEA33A65EEA24A66EEA22A74EE894ACD
:10B0B0006AEE215A72EE8B2A6CEE211A75EEA44AC2
:10B0C00071EEA21A24EE234A25EE235A60EEA30A5B
:10B0D00022EE242A23EE243A27EE247A20EE210AB7
:10B0E00021EE211A26EE216A80ED004A80ED012A28
:10B0F00080ED020A80ED035A80ED043A80ED051AD6
:10B10000C0ED060A80ED077A80ED086ABDEC0E8B73
:10B11000704700BF00000000BD3786B5BD378635DB
:10B1200010B588B10A4690F82410C0ED690A0329C9
:10B1300080ED6A1A0CD0052910D10021002400F0FE
:10B1400011F860B210BD00BFFF2460B210BD00BF97
:10B150000021002403F07CF960B210BD002460B22D
:10B1600010BD00002DE9F04F81B02DED088B8EB0A1
:10B1700050B39FED198AB5EE400AB7EE00AAF1EE82
:10B1800010FAB0EE481AB4EE4A0AB0EE4A9AC8BFB6
:10B19000B0EE401AF1EE10FAD8BFB0EE419AB5EE1B
:10B1A000409A8346F1EE10FA1AD10020CBF8AC0198
:10B1B00022B1C2E90000C2E9020010610EB0BDEC8C
:10B1C000088B01B0BDE8F08F01200EB0BDEC088BFC
:10B1D00001B0BDE8F08F00BF0000000017B7D13804
:10B1E0009BED690A1FED03BA0192B4EE4B0AF1EE32
:10B1F00010FAB8BFB0EE4B0A9BED6A1A8BED690AE4
:10B20000B4EE4B1AF1EE10FAB8BFB0EE4B1ADBF801
:10B210001400DBE90E1200EB40008BED6A1A01EE20
:10B22000100ACBE91812DBE92101DBE95A23CBE94B
:10B230002B01DBE9340143F62024CBE93E01DBE9B5
:10B240004701B8EE411ACBE951010120C0F20504D3
:10B250000BF128094C268BED6B1ACBE96423039084
:10B26000CDF808B00AE000BFB4EE49AA0020F1EE24
:10B2700010FAB0EE49AA039000F08082002009E0A5
:10B28000049843F620240328C0F205044FF04C062E
:10B29000EAD801309BED6A1A0490002007E000BF55
:10B2A000002940F091800130072800F08D8000EBEC
:10B2B00040016218615C5378927811FB069512FB8D
:10B2C000069A95ED0F5A9AED0F6AB4EE451A13FBE4
:10B2D0000697F1EE10FA4FF00001B4EE461A95ED24
:10B2E0000E2A97ED0E3A97ED0F4A9AED0E7AA8BF07
:10B2F0000121F1EE10FA4FF00002B8BF01225140D7
:10B300004FF0000112D177EE420A71EE451A60EE5D
:10B31000A10A76EE451AC0EEA10A72EE200AB4EE3A
:10B32000600AF1EE10FAB4BF01210021B4EE441A14
:10B33000F1EE10FA4FF00002B4EE451AA8BF012258
:10B34000F1EE10FA4FF00003B8BF01235A4012D1BA
:10B3500072EE430A71EE441A60EEA10A75EE441AC9
:10B36000C0EEA10A73EE200AB4EE600AF1EE10FA04
:10B37000B8BF81F00101B4EE461AF1EE10FA4FF0B9
:10B380000002B4EE441AA8BF0122F1EE10FA4FF009
:10B390000003B8BF01235A407FF482AF73EE470A1F
:10B3A00071EE461A60EEA10A74EE461AC0EEA10ACA
:10B3B00077EE200AB4EE600AF1EE10FABFF670AF35
:10B3C00000297FF470AF00BFDBED6B0A66EE031A55
:10B3D00067EE042A72EEE11A60EE872A60EE834A75
:10B3E00064EE223A66EE245A65EE255A63EE853AFB
:10B3F00065EE222A73EEE53A62EE812A73EEE22AC6
:10B4000060EE203A63EE865A65EE855A65EE244A70
:10B4100075EEA22A64EE814A64EE233A67EE055A7D
:10B4200074EEA22A62EE064A63EE853A71EEE51AE0
:10B4300072EEE32A74EEE53A27EE017A74EEA11A71
:10B4400037EE237A60EE063A60EE454A23EE055A5F
:10B4500037EE637A62EE013A64EE205A20EE866A95
:10B4600075EE210A24EE022A70EEC20A35EE422A57
:10B4700021EE205A23EE011A32EE411A20EE040A80
:10B4800030EE010A37EE637A33EE800A37EE647AE3
:10B4900034EE800A25EE877A26EE000A82EE851ABF
:10B4A00087EE052A80EE050A0020CBF86800CBF86D
:10B4B000B400CBF80001CBF84C01CBF8980103980D
:10B4C000C00785ED101A87ED102A8AED100A05D005
:10B4D0005846002101F068FBB0EE408A9BF8B001AD
:10B4E00070B99BED050A9BED081AB8EE400A21EEF3
:10B4F000000AB4EE408AF1EE10FAC8BFB0EE408AFE
:10B5000005F138000B9007F138000D900AF1380072
:10B510000C9005F14000029E079007F14000069054
:10B5200096ED041A96F8B10105F13C0807F13C0BC1
:10B530000AF13C040AF14001B0EE4A0AF0EE480A72
:10B54000CDF82080CDF824B00A94059100F080FC5D
:10B550000D989BED006A90ED005A0C9894ED007ADE
:10B56000D0ED000A67EE051A60EE862A98ED004AD3
:10B5700072EEE11A60EE202A60EE054A96ED6A2A24
:10B5800066EE223A67EE245A96ED691A64EE255A61
:10B5900063EE843A64EE222A73EEE53A62EE822A82
:10B5A0000B9973EEE22A60EE013A63EE875A91ED51
:10B5B000003A65EE845A64EE244A75EEA22A64EEDF
:10B5C000824A66EE233A60EE845A74EEA22A63EE53
:10B5D000074A63EE843A71EEE51A72EEE32A74EEDE
:10B5E000E53A60EE820A74EEA11A70EEA30A61EEEB
:10B5F000073A61EE444A25EE044A70EEE30A63EE30
:10B60000023A74EE211A26EE033A71EEC31A34EEB2
:10B61000433A22EE214A25EE022A33EE422A21EE57
:10B62000061A31EE021A70EEE30A33EE811A70EE5A
:10B63000E40A66EE005A34EE811A20EE072A65EE1F
:10B64000A00A22EE011A82EE842A80EE843A81EE6C
:10B65000041A3246079EDDF818B0DDF8148082ED3A
:10B660006B0A2846144686ED002A8BED003A88EDD9
:10B67000001A96ED001AB0EE410A02F03DFD0D9D54
:10B680009BED000A3846294602F036FD37460C9EEF
:10B6900098ED000A5046314602F02EFD0B98D5ED8C
:10B6A000000A90ED000A08989BED003A90ED004AE0
:10B6B0000998D6ED001A90ED005A0A9898ED002AE4
:10B6C00090ED006A97ED001A25EE027A63EE062AE5
:10B6D00061EE821A60EE830A64EE222A27EE047A73
:10B6E00065EE211A60EE860A20EE010A37EE227A14
:10B6F00061EE062A64EE200A61EE841A20EE060A44
:10B7000062EE852A71EEA00A20EE050A32EE877AF3
:10B7100030EE200AC0EE070A94ED690A39465A460F
:10B72000A346434670EE600AF0EEE00AF4EE4B0AE0
:10B73000F1EE10FA3FF7A4AD25EE065A24EE054AC5
:10B7400033EE025A31EE055A24EE054A84EE074ADA
:10B750009BED6A5A049843F62024C0F205044C2657
:10B7600035EE444AB0EEC44AB4EE4B4AF1EE10FA5C
:10B770007FF77AAD0428FFF48CAD75E59BF8B00136
:10B78000DDF80480012860D19FED0A0AB5EE401A69
:10B79000F1EE10FAB0EE404A10DBB5EE403AF1EEB1
:10B7A00010FA09DBB5EE402AF1EE10FAB0EE414A8C
:10B7B0004BDA03E000000000B0EE414A81ED004AA0
:10B7C00092ED001AF0EE480AB5EE401AF1EE10FACA
:10B7D000B8BFB0EE401A82ED001A93ED002A0E4673
:10B7E000B5EE402AF1EE10FAB8BFB0EE402A83ED74
:10B7F000002A91ED000A92ED001A9BF8B10130EE9B
:10B80000010A9BED041A32EE00AAB0EE490A154671
:10B810001F4600F01DFB96ED001A8BED6B0A81EEC2
:10B820000A1A20EE011A86ED001A95ED001A81EE33
:10B830000A1A20EE011A85ED001A97ED001A81EE22
:10B840000A1A20EE010A87ED000A9BED100A9BED13
:10B850001A2AB8F1000F82EE001A1FED2A0AB5EE7F
:10B86000401A00F03981F1EE10FAB0EE403A20DDD6
:10B87000B7EE003AB4EE431AF1EE10FA19DA9BED86
:10B88000175A9BED166A21EE055A9BED154A21EEDB
:10B89000055A21EE066A21EE066A25EE015A9BED55
:10B8A000143A35EE065A24EE011A31EE051A33EE3B
:10B8B000013ABBF84A0001EE100AB8EE411A23EE35
:10B8C000011A8BED131A8BED071A88ED002A9BEDF8
:10B8D000232A9BED2D1AB0EE403A81EE022AB5EEF6
:10B8E000402AF1EE10FA20DDB7EE003AB4EE432A1A
:10B8F000F1EE10FA19DA9BED2A5A9BED296A22EE35
:10B90000055A9BED284A22EE055A22EE066A22EEDF
:10B91000066A25EE025A9BED273A35EE065A24EECA
:10B92000022A32EE052A33EE023ABBF8960002EE06
:10B93000100AB8EE422A23EE022A9BED073A8BED5D
:10B94000262A33EE022A8BED072A88ED011A9BED99
:10B95000362A9BED401AB0EE403A81EE022AB5EE4F
:10B96000402AF1EE10FA20DDB7EE003AB4EE432A99
:10B97000F1EE10FA19DA9BED3D5A9BED3C6A22EE8E
:10B98000055A9BED3B4A22EE055A22EE066A22EE4C
:10B99000066A25EE025A9BED3A3A35EE065A24EE37
:10B9A000022A32EE052A33EE023ABBF8E20002EE3A
:10B9B000100AB8EE422A23EE022A9BED073A8BEDDD
:10B9C000392A33EE022A8BED072A88ED021A9BED05
:10B9D000492A9BED531AB0EE403A81EE022AB5EEA9
:10B9E000402AF1EE10FA20DDB7EE003AB4EE432A19
:10B9F000F1EE10FA19DA9BED505A9BED4F6A22EEE8
:10BA0000055A9BED4E4A22EE055A22EE066A22EEB8
:10BA1000066A25EE025A9BED4D3A35EE065A24EEA3
:10BA2000022A32EE052A33EE023ABBF82E0102EE6C
:10BA3000100AB8EE422A23EE022A9BED073A8BED5C
:10BA40004C2A33EE022A8BED072A88ED031A9BED70
:10BA50005C2A9BED661A81EE022AB5EE402AF1EED1
:10BA600010FA20DDB7EE000AB4EE402AF1EE10FA2B
:10BA700019DA9BED634A9BED625A22EE044A9BED74
:10BA8000613A22EE044A22EE055A22EE055A24EECD
:10BA9000024A9BED600A34EE054A23EE022A32EE9A
:10BAA000042A30EE020ABBF87A0102EE100AB8EE60
:10BAB000422A20EE020A9BED072A8BED5F0A32EE46
:10BAC000000A8BED070A88ED041A00200EB0BDECC9
:10BAD000088B01B0BDE8F08FF1EE10FAB0EE403AFD
:10BAE00020DDB7EE003AB4EE431AF1EE10FA19DA9F
:10BAF0009BED174A9BED165A21EE044A9BED153A31
:10BB000021EE044A21EE055A21EE055A24EE014A9F
:10BB10009BED142A34EE054A23EE011A31EE041A85
:10BB200032EE013A9BED231A9BED2D2ABBF84A0019
:10BB300082EE012A01EE100AB8EE411A23EE011A34
:10BB4000B0EE403A8BED131AB5EE402AF1EE10FA42
:10BB500020DDB7EE003AB4EE432AF1EE10FA19DA1E
:10BB60009BED2A5A9BED296A22EE055A9BED284A45
:10BB700022EE055A22EE066A22EE066A25EE025AE7
:10BB80009BED273A35EE065A24EE022A32EE052ABC
:10BB900033EE023A9BED362A9BED404ABBF8960005
:10BBA00084EE022A04EE100AB8EE444A23EE043A68
:10BBB0008BED263A31EE031AB0EE403AB5EE402A4C
:10BBC000F1EE10FA20DDB7EE003AB4EE432AF1EEC2
:10BBD00010FA19DA9BED3D5A9BED3C6A22EE055AAC
:10BBE0009BED3B4A22EE055A22EE066A22EE066AD9
:10BBF00025EE025A9BED3A3A35EE065A24EE022A19
:10BC000032EE052A33EE023A9BED492A9BED534A68
:10BC1000BBF8E20084EE022A04EE100AB8EE444AB1
:10BC200023EE043A8BED393A31EE031AB0EE403A86
:10BC3000B5EE402AF1EE10FA20DDB7EE003AB4EE90
:10BC4000432AF1EE10FA19DA9BED505A9BED4F6A38
:10BC500022EE055A9BED4E4A22EE055A22EE066A66
:10BC600022EE066A25EE025A9BED4D3A35EE065A53
:10BC700024EE022A32EE052A33EE023A9BED5C2ACC
:10BC80009BED664ABBF82E0184EE022A04EE100AF0
:10BC9000B8EE444A23EE043A31EE031A8BED4C3AE7
:10BCA000B5EE402AF1EE10FA20DDB7EE000AB4EE50
:10BCB000402AF1EE10FA19DA9BED634A9BED625AC5
:10BCC00022EE044A9BED613A22EE044A22EE055A26
:10BCD00022EE055A24EE024A9BED600A34EE054A34
:10BCE00023EE022A32EE042A30EE020ABBF87A0171
:10BCF00002EE100AB8EE422A20EE020A8BED5F0A2D
:10BD000031EE000A00208BED070A0EB0BDEC088B67
:10BD100001B0BDE8F08F0000F0B581B02DED028BD1
:10BD200082B0F8B1DDE90A47054600F5D27005F5A5
:10BD3000D4760090084611461A462346B0EE408A53
:10BD4000019600F025F895F8240003280CD005286A
:10BD500014D12846B0EE480A00213A460024FFF7E5
:10BD600001FA0CE0FF240AE02846B0EE480A002160
:10BD70003A46002402F06CFB01E000BF002460B2F0
:10BD800002B0BDEC028B01B0F0BD0000000000006D
:10BD900070B5DDE90454B2F5486218BF01220128EC
:10BDA00022D142F63870C0F2050000EB42100329A0
:10BDB00028BF032100EBC102127950F831009342F1
:10BDC00028BF531E99B200EB810636F8020BFEF72E
:10BDD000D6FC9FED1D0B53EC102BFEF7DEFBFEF7A0
:10BDE00032FD286023E000BF42EA820042F6E862AA
:10BDF000C0F2050202EBC000042928BF042100EBB9
:10BE0000C102127950F83100934228BF531E99B2F3
:10BE100000EB810636F8020BFEF7B1FC9FED0A0B32
:10BE200053EC102BFEF7B9FBFEF70DFD28603088B0
:10BE3000FEF7A5FC9FED040B53EC102BFEF7ADFBBA
:10BE4000FEF701FD206070BD2D431CEBE2361A3F6A
:10BE5000F0B581B02DED0A8BF4EE410AB0EE418AC7
:10BE6000F1EE10FAB0EE409A16DA9FEDD40AF5EE34
:10BE7000400AF1EE10FAB0EE401AB5EE409A18BF43
:10BE8000B0EE481AF1EE10FA18BFB0EE410ABDEC60
:10BE90000A8B01B0F0BD00BF032803D8DFE800F033
:10BEA00002EE0C5A30EEC80A20EE090A30EE080AFB
:10BEB000BDEC0A8B01B0F0BDB5EE409AF1EE10FA80
:10BEC00030EEC8BA40F328819FEDBD0AB4EE409A27
:10BED000F1EE10FA80F22C8119EE100AFEF7A0FCA8
:10BEE00041EC100B9FEDB81B04460D4627F0A4FA59
:10BEF000B0EE40AA2046294622462B46F0EE60AA24
:10BF0000FEF74BFB9FEDB20B53EC102BFEF745FBFE
:10BF10009FEDB10B04460D4651EC1A0B53EC102B60
:10BF2000FEF73BFB22462B46FEF790FA9FEDAC0A4C
:10BF3000044629EE000A10EE100A0D46FEF770FCCA
:10BF400002460B4620462946FEF780FA9FEDA60BD7
:10BF500000F0B5BDB5EE409AF1EE10FA30EEC8CA69
:10BF600040F3DE809FED960AB4EE409AF1EE10FAAF
:10BF700080F2D48119EE100AFEF752FC41EC1A0B44
:10BF80009FED9B1BB0EE4A0AF0EE6A0A04460D468E
:10BF900027F052FAB0EE40BA9FED971BB0EE4A0A76
:10BFA000F0EE60BAF0EE6A0A27F046FA51EC100B98
:10BFB0009FED930B53EC102BFEF7EFFA9FED920BD6
:10BFC00006460F4651EC1B0B53EC102BFEF7E5FA1F
:10BFD00032463B46FEF73AFA9FED8D1BB0EE4A0A19
:10BFE000F0EE6A0A06460F4627F026FA51EC100BCF
:10BFF0009FED890B53EC102BFEF7CFFA32463B46F0
:10C00000FEF724FA9FED701BB0EE4A0AF0EE6A0AC2
:10C0100006460F4627F010FA51EC100B9FED800BEF
:10C0200053EC102BFEF7B9FA32463B46FEF70EFAF8
:10C0300006460F462046294622462B46FEF7ADFA15
:10C040009FED790B53EC102BFEF7A7FA32463B46D7
:10C05000FEF7FCF99FEDB00A044629EE000A10EE47
:10C06000100A0D46FEF7DCFB02460B462046294629
:10C07000FEF7ECF99FED6E0B00F0C3BCB5EE409AF5
:10C08000F1EE10FA30EEC8BA4EDD9FED4D0AB4EE77
:10C09000409AF1EE10FA80F2B78119EE100AFEF71D
:10C0A000BFFB41EC100B9FED481B04460D4627F0EB
:10C0B000C3F9B0EE40AA2046294622462B46F0EEB0
:10C0C00060AAFEF76AFA9FED5C0B53EC102BFEF7AB
:10C0D00064FA9FED5B0B04460D4651EC1A0B53ECD2
:10C0E000102BFEF75AFA22462B46FEF7AFF99FEDCA
:10C0F000E90A044629EE000A10EE100A0D46FEF782
:10C100008FFB02460B4620462946FEF79FF99FED1E
:10C110004E0B00F0D4BC00BF9FED280A00F0D7BC46
:10C120009FED260A00F075BC9FED240A00F0CFBCFD
:10C130009FEDD90AB4EE409AF1EE10FA80F2B08188
:10C1400019EE100AFEF76CFB41EC100B9FED1E1B65
:10C1500004460D4627F070F9B0EE40AA2046294665
:10C1600022462B46F0EE60AAFEF717FA9FED380B39
:10C1700053EC102BFEF711FA9FED370B04460D46DA
:10C1800051EC1A0B53EC102BFEF707FA22462B4604
:10C19000FEF75CF99FEDC10A044629EE000A10EE95
:10C1A000100A0D46FEF73CFB02460B462046294688
:10C1B000FEF74CF99FED2A0B00F081BC0000000057
:10C1C000CDCC4C3E00BF00BF000000000000084086
:10C1D00000000020C0DB0FC000000040A2B40440FB
:10C1E000234A474000BF00BF0000002074A8703FF2
:10C1F0000000000000001840000000000000144093
:10C20000000000A099D19FC00000000000FAAA40E1
:10C2100000000000000010400000006066927A40BC
:10C2200000000020DD5440C000000040B280ED3F1F
:10C2300000000080BA37753F00000020ED2AC43F9F
:10C24000000000A09465E33F00000020896F723F6A
:10C25000000000E04DE20AC0000000001748F83F6F
:10C26000000000805DA28A3F00000040E1CA594002
:10C27000000000A0452655C000000000D76344C060
:10C28000000000006F4120405516855D143D903F31
:10C29000000000E0CE85913F000000C008E1EA3FC9
:10C2A000000000C0B255633F000000E09C1105C0D3
:10C2B000000000C0E49BEC3F00000060DC0DAA3FE2
:10C2C00000000000293C6EC0000000803F3D584047
:10C2D0000000002085036C4000000000FEA457C051
:10C2E000BC96900F7A36F9BF0000000000000840AD
:10C2F0000000004053E8D0BF00000000BE30F13F16
:10C3000000000060F8FA8ABF0000002014BF02C0DD
:10C3100000000020F510E73FC9E4B43D9FED5E0A40
:10C32000B4EE409AF1EE10FA80F2008119EE100A94
:10C33000FEF776FA41EC1A0B1FED511BB0EE4A0ADC
:10C34000F0EE6A0A04460D4627F076F8B0EE40BAE1
:10C350001FED511BB0EE4A0AF0EE60BAF0EE6A0A29
:10C3600027F06AF851EC100B1FED410B53EC102B2A
:10C37000FEF713F91FED420B06460F4651EC1B0B5F
:10C3800053EC102BFEF709F932463B46FEF75EF8F8
:10C390001FED731BB0EE4A0AF0EE6A0A06460F461E
:10C3A00027F04AF851EC100B1FED4D0B53EC102BFE
:10C3B000FEF7F3F832463B46FEF748F806460F46CE
:10C3C0002046294622462B46FEF7E7F81FED540B80
:10C3D00053EC102BFEF7E1F832463B46FEF736F8F9
:10C3E0009FEDD30A044629EE000A10EE100A0D460E
:10C3F000FEF716FA02460B4620462946FEF726F8B7
:10C400001FED5F0BFDE200BF9FED230AB4EE409AE3
:10C41000F1EE10FA80F2008119EE100AFEF700FA30
:10C4200041EC100B1FED981B04460D4627F004F855
:10C43000B0EE40AA2046294622462B46F0EE60AADE
:10C44000FEF7ABF81FED6E0B53EC102BFEF7A5F8C3
:10C450001FED6F0B04460D4651EC1A0B53EC102BDD
:10C46000FEF79BF822462B46FDF7F0FF9FEDB10A41
:10C47000044629EE000A10EE100A0D46FEF7D0F928
:10C4800002460B4620462946FDF7E0FF1FED7C0BD8
:10C4900015E300BF880F2C3DCDCCCC3E7A363F4013
:10C4A0009FEDA50AB4EE409AF1EE10FA80F2FA8000
:10C4B00019EE100AFEF7B4F941EC100B1FEDBE1B8C
:10C4C00004460D4626F0B8FFB0EE40AA20462946A5
:10C4D00022462B46F0EE60AAFEF75FF81FED8E0BAA
:10C4E00053EC102BFEF759F81FED8F0B04460D4649
:10C4F00051EC1A0B53EC102BFEF74FF822462B464B
:10C50000FDF7A4FF9FEDEB0A044629EE000A10EEAA
:10C51000100A0D46FEF784F902460B4620462946CE
:10C52000FDF794FF1FED9C0BC9E200BF9FED820A4F
:10C53000B4EE409AF1EE10FA80F2008119EE100A82
:10C54000FEF76EF941EC1A0B1FEDD51BB0EE4A0A4F
:10C55000F0EE6A0A04460D4626F06EFFB0EE40BAD1
:10C560001FEDD51BB0EE4A0AF0EE60BAF0EE6A0A93
:10C5700026F062FF51EC100B1FEDAF0B53EC102BAC
:10C58000FEF70BF81FEDB00B06460F4651EC1B0BE8
:10C5900053EC102BFEF701F832463B46FDF756FFF1
:10C5A0001FEDF71BB0EE4A0AF0EE6A0A06460F4688
:10C5B00026F042FF51EC100B1FEDBB0B53EC102B80
:10C5C000FDF7EBFF32463B46FDF740FF06460F46C0
:10C5D0002046294622462B46FDF7DFFF1FEDC20B02
:10C5E00053EC102BFDF7D9FF32463B46FDF72EFFEB
:10C5F0009FEDB10A044629EE000A10EE100A0D461E
:10C60000FEF70EF902460B4620462946FDF71EFFAF
:10C610001FEDCD0BF5E100BF9FED470AB4EE409A48
:10C62000F1EE10FA80F2008119EE100AFEF7F8F828
:10C6300041EC100B1FEDD41B04460D4626F0FCFE0A
:10C64000B0EE40AA2046294622462B46F0EE60AACC
:10C65000FDF7A3FF1FEDDA0B53EC102BFDF79DFF49
:10C660001FEDDB0B04460D4651EC1A0B53EC102B5F
:10C67000FDF793FF22462B46FDF7E8FE9FEDE90A02
:10C68000044629EE000A10EE100A0D46FEF7C8F81F
:10C6900002460B4620462946FDF7D8FE1FEDE80B63
:10C6A0000DE200BF9FEDE00AB4EE409AF1EE10FA01
:10C6B00080F2048119EE100AFEF7B2F841EC100B7B
:10C6C0001FEDF71B04460D4626F0B6FEB0EE40AA5D
:10C6D0002046294622462B46F0EE60AAFDF75DFF74
:10C6E0001FEDF70B53EC102BFDF757FF1FEDF80B69
:10C6F00004460D4651EC1A0B53EC102BFDF74DFF81
:10C7000022462B46FDF7A2FE9FEDF50A044629EED0
:10C71000000A10EE100A0D46FEF782F802460B469C
:10C7200020462946FDF792FE9FEDC10BC7E100BFF1
:10C730008E2306BF4852923D9A99193F9FEDBA0A3F
:10C74000B4EE409AF1EE10FA80F2FE8019EE100A73
:10C75000FEF766F841EC1A0B9FEDEF1BB0EE4A0AAC
:10C76000F0EE6A0A04460D4626F066FEB0EE40BAC8
:10C770009FEDDD1BB0EE4A0AF0EE60BAF0EE6A0AF9
:10C7800026F05AFE51EC100B9FEDE50B53EC102BED
:10C79000FDF703FF9FEDE40B06460F4651EC1B0B24
:10C7A00053EC102BFDF7F9FE32463B46FDF74EFEEB
:10C7B0009FEDCF1BB0EE4A0AF0EE6A0A06460F461E
:10C7C00026F03AFE51EC100B9FEDD90B53EC102BD9
:10C7D000FDF7E3FE32463B46FDF738FE06460F46C0
:10C7E0002046294622462B46FDF7D7FE9FEDD20B69
:10C7F00053EC102BFDF7D1FE32463B46FDF726FEEB
:10C800009FEDE50A044629EE000A10EE100A0D46D7
:10C81000FEF706F802460B4620462946FDF716FEAF
:10C820009FEDC70BEDE000BF9FEDD90AB4EE409A33
:10C83000F1EE10FA80F2008119EE100AFDF7F0FF18
:10C8400041EC100B9FEDAA1B04460D4626F0F4FDAB
:10C85000B0EE40AA2046294622462B46F0EE60AABA
:10C86000FDF79BFE9FEDC40B53EC102BFDF795FEDF
:10C870009FEDC30B04460D4651EC1A0B53EC102BE5
:10C88000FDF78BFE22462B46FDF7E0FD9FEDC50A26
:10C89000044629EE000A10EE100A0D46FDF7C0FF0F
:10C8A00002460B4620462946FDF7D0FD9FEDB60B0C
:10C8B00005E100BF91ED2C405EBA9C41B7EE000A45
:10C8C000B4EE409AF1EE10FA80F2018119EE100AEE
:10C8D000FDF7A6FF41EC100B9FED851B04460D46AE
:10C8E00026F0AAFDB0EE40AA2046294622462B4655
:10C8F000F0EE60AAFDF751FE9FED930B53EC102B69
:10C90000FDF74BFE9FED920B04460D4651EC1A0BC2
:10C9100053EC102BFDF741FE22462B46FDF796FD0A
:10C920009FED9E0A044629EE000A10EE100A0D46FD
:10C93000FDF776FF02460B4620462946FDF786FDA9
:10C940009FED850BBBE000BFB7EE000AB4EE409A46
:10C95000F1EE10FA5DDA19EE100AFDF761FF41EC15
:10C960001A0B9FED611BB0EE4A0AF0EE6A0A04460C
:10C970000D4626F061FDB0EE40BA9FED5D1BB0EEB6
:10C980004A0AF0EE60BAF0EE6A0A26F055FD51EC64
:10C99000100B9FED590B53EC102BFDF7FEFD9FED97
:10C9A000580B06460F4651EC1B0B53EC102BFDF7B2
:10C9B000F4FD32463B46FDF749FD06460F4620464C
:10C9C000294622462B46FDF7E8FD9FED4F0B53EC21
:10C9D000102BFDF7E2FD32463B46FDF737FD9FED9C
:10C9E0006D0A044629EE000A10EE100A0D46FDF706
:10C9F00017FF02460B4620462946FDF727FD9FED0F
:10CA0000440B53EC102BFDF721FDFDF71CFF00EE4E
:10CA1000100A2CEE000A30EE080ABDEC0A8B01B0B9
:10CA2000F0BD00BFA9BC3D3ECDCC4C3F00BF00BF18
:10CA30000000002019C7B43FB7EE000AB4EE409AD8
:10CA4000F1EE10FA43DA19EE100AFDF7E9FE41ECB7
:10CA5000100B9FED271B04460D4626F0EDFCB0EEB3
:10CA600040AA2046294622462B46F0EE60AAFDF752
:10CA700094FD9FED3B0B53EC102BFDF78EFD9FEDCE
:10CA80003A0B04460D4651EC1A0B53EC102BFDF7F4
:10CA900084FD22462B46FDF7D9FC9FED410A044652
:10CAA00029EE000A10EE100A0D46FDF7B9FE024607
:10CAB0000B4620462946FDF7C9FC9FED2D0B53EC94
:10CAC000102BFDF7C3FCFDF7BEFE00EE100A2BEEA7
:10CAD000000A30EE080ABDEC0A8B01B0F0BD00BFC1
:10CAE000CE88224000BF00BF0000000000001040C0
:10CAF0000000000000000840000000E07CBF3AC0D9
:10CB0000000000C007BD1F4000000080954340406A
:10CB1000000000C06B090E4000000000000014403F
:10CB2000000000400A9B7440000000C0C8E655C0E9
:10CB3000000000A070697EC000000080C2CD75407A
:10CB4000000000E0CEB72F40000000C0073D08C045
:10CB5000000000C049EFEF3F000000005262B3BF89
:10CB6000000000E0ACFAF3BF00000080F2B0F83F34
:10CB7000000000A0B0C4C7BF000000E0B1F4E5BFF2
:10CB800000000040D8F0F43F00000040E389B0BF4F
:10CB9000CDCC4C3F83C083C1A470EEC2EBE24640D3
:10CBA0005F24643FD82AE13E2DED108B90ED1A0AE8
:10CBB00090ED2D1A90ED402AB5EE400AF1EE10FAF4
:10CBC000B5EE401A028B90ED085A9FED794AB8BF36
:10CBD000B0EE440AF1EE10FAB5EE402A80ED1A0AE2
:10CBE000B8BFB0EE441A80ED2D1AF1EE10FAB8BFBE
:10CBF000B0EE442A90ED533A80ED402AB5EE403A2B
:10CC0000F1EE10FAB8BFB0EE443A90ED666A80EDEE
:10CC1000533AB5EE406AF1EE10FAB5EE400AB8BFED
:10CC2000B0EE446AF1EE10FAF0EE442A80ED666A46
:10CC30003CD1B5EE401AF1EE10FAF0EE441A40D1B4
:10CC4000B5EE402AF1EE10FAF0EE440A44D1B5EE0A
:10CC5000403AF1EE10FAB0EE447A48D1B5EE406AAF
:10CC6000F1EE10FA4CD1F5EE402AF1EE10FA50D167
:10CC7000F5EE401AF1EE10FA6CD1F5EE400AF1EE45
:10CC800010FA01EE902A40F08480B5EE407AF1EE81
:10CC900010FAF8EE610A00F09C80B5EE404AF1EE21
:10CCA00010FA43D1B0EE474A93E000BF90ED107AFE
:10CCB000C7EE002AB5EE401AF1EE10FAF0EE441A73
:10CCC000BED090ED237AC7EE011AB5EE402AF1EE00
:10CCD00010FAF0EE440ABAD090ED367AC7EE020AA6
:10CCE000B5EE403AF1EE10FAB0EE447AB6D090EDDF
:10CCF000497A87EE037AB5EE406AF1EE10FAB2D0C7
:10CD000090ED5C4A84EE064AF5EE402AF1EE10FA08
:10CD1000AED0F5EE401AF1EE10FA0FD1F0EE621A35
:10CD2000F5EE401AF1EE10FAA7D013E0B4EE447A13
:10CD3000F1EE10FAB8BFB0EE474A4AE0F4EE612ACD
:10CD4000F1EE10FAB8BFF0EE621AF5EE401AF1EE0D
:10CD500010FA92D0F5EE400AF1EE10FA0AD1F0EE98
:10CD6000610AF5EE400AF1EE10FA01EE902A3FF466
:10CD70008CAF0EE0F4EE601AF1EE10FAB8BFF0EEF0
:10CD8000610AF5EE400AF1EE10FA01EE902A3FF446
:10CD90007CAFB5EE407AF1EE10FA0BD1B0EE607ACE
:10CDA000B5EE407AF1EE10FAF8EE610A11D074E7B0
:10CDB00000000000F4EE470AF1EE10FAB8BFB0EE42
:10CDC000607AB5EE407AF1EE10FAF8EE610A7FF47F
:10CDD00064AF24EE000A24EE011A24EE022A24EEA7
:10CDE000033A24EE064A9FEDCE6A25EE205A90EDD6
:10CDF000107AD0ED230AD0ED361AD0ED492AD0EDC5
:10CE00005C3ADFEDC64A25EE066AFEEE005AF7EE02
:10CE1000006AB5EE407AF1EE10FAF0EE647A1FD1B6
:10CE2000F5EE400AF1EE10FAB0EE648A51D1F5EE5B
:10CE3000401AF1EE10FAB0EE649A40F08480F5EEFC
:10CE4000402AF1EE10FAB0EE64AA40F0B680F5EE9A
:10CE5000403AF1EE10FAB0EE64BA00F01981E5E064
:10CE6000C0EE077AB0EE648AF5EE407AF1EE10FA81
:10CE700020DDF4EE667AF1EE10FAB0EE668A19DA89
:10CE800090ED17AA90ED16BA27EE8AAA90ED159AA2
:10CE900027EE8AAA27EE8BBA27EE8BBA2AEE27AAAC
:10CEA00090ED148A3AEE0BAA69EE277A77EE8A7A29
:10CEB00038EE278AB0F84A2007EE902AF8EE677A13
:10CEC00068EE277AF5EE400AF1EE10FAB0EE648AC9
:10CED000ADD081EE208AB0EE649AB5EE408AF1EED4
:10CEE00010FA20DDB4EE668AF1EE10FAB0EE669A22
:10CEF00019DA90ED2ABA90ED29CA28EE0BBA90ED16
:10CF000028AA28EE0BBA28EE0CCA28EE0CCA2BEE83
:10CF100008BA90ED279A3BEE0CBA2AEE088A38EE52
:10CF20000B8A39EE089AB0F8962008EE102AB8EE6F
:10CF3000488A29EE088AF5EE401AF1EE10FAB0EEB2
:10CF4000649A3FF47CAF82EE219AB0EE64AAB5EE0B
:10CF5000409AF1EE10FA20DDB4EE669AF1EE10FA86
:10CF6000B0EE66AA19DA90ED3DCA90ED3CDA29EEF2
:10CF70000CCA90ED3BBA29EE0CCA29EE0DDA29EE67
:10CF80000DDA2CEE09CA90ED3AAA3CEE0DCA2BEE52
:10CF9000099A39EE0C9A3AEE09AAB0F8E22009EEA5
:10CFA000102AB8EE499A2AEE099AF5EE402AF1EED7
:10CFB00010FAB0EE64AA3FF44AAF83EE22AAB0EEB4
:10CFC00064BAB5EE40AAF1EE10FA20DDB4EE66AA1E
:10CFD000F1EE10FAB0EE66BA19DA90ED50DA90ED93
:10CFE0004FEA2AEE0DDA90ED4ECA2AEE0DDA2AEE5D
:10CFF0000EEA2AEE0EEA2DEE0ADA90ED4DBA3DEE7B
:10D000000EDA2CEE0AAA3AEE0DAA3BEE0ABAB0F8F6
:10D010002E210AEE102AB8EE4AAA2BEE0AAAF5EE45
:10D02000403AF1EE10FAB0EE64BA31D084EE23BA91
:10D03000B0EE64CAB5EE40BAF1EE10FA20DDB4EEFF
:10D0400066BAF1EE10FAB0EE66CA19DA90ED63EA4C
:10D0500090ED62FA2BEE0EEA90ED61DA2BEE0EEA1D
:10D060002BEE0FFA2BEE0FFA2EEE0BEA90ED60CAC4
:10D070003EEE0FEA2DEE0BBA3BEE0EBA3CEE0BCABB
:10D08000B0F87A210BEE102AB8EE4BBA2CEE0BBAA0
:10D0900077EE887A77EE897A77EE8A7A77EE8B7AEE
:10D0A000F4EE467AF1EE10FA22DD37EEC58A28EE6C
:10D0B000258AC8EE277A27EE808A38EE000A27EE06
:10D0C000818A38EE011A27EE828A38EE022A27EE8C
:10D0D000838A67EE847A38EE033A37EE844AB5EEF7
:10D0E000407AF1EE10FAF0EE647A3FF499AEB7E6CA
:10D0F00049B181ED000A81ED011A81ED022A81ED2D
:10D10000033A81ED044A30EE010A30EE020A30EEB5
:10D11000030A30EE040ABDEC108B704700000000DB
:10D12000C520803F70B52DED088B82B09FED5A2A47
:10D13000B0EE418A80EE822AB6EE001A1446054609
:10D1400028EE019AB5EE402AF1EE10FA04D1B0EEC5
:10D1500049AAB0EE49BA15E0B4EE419AF1EE10FAE0
:10D160002CDD32EE091A29EE022A31EE421AB5EE12
:10D17000401AF1EE10FA2CDC9FED489AB0EE49AA65
:10D18000B0EE49BA00206E46CDE90000321D0846D7
:10D19000B0EE610A3146FDF7A7FD2846B0EE480A19
:10D1A000F0EE4B0AB0EE4A1AF0EE491A314622462A
:10D1B00000F056FC02B0BDEC088B70BDB7EE001A53
:10D1C00032EE011A29EE011AB5EE401AF1EE10FA0C
:10D1D000D2DD9FED302AB1EE084A80EE022A39EE08
:10D1E000090A30EE410A31EE403A83EE013AB7EED9
:10D1F000005A9FED2A6A22EE044AB4EE452AF1EE67
:10D2000010FA08BFB0EE464ABDEEC42AB8EEC25AC4
:10D2100012EE100A34EE452A21EE033A22EE033ACA
:10D220000138042830EE032A0CD831EE43BADFE887
:10D2300000F0031119212900B0EE409AB0EE41AA86
:10D24000A0E700BFB0EE409AB0EE42AAB0EE41BAFD
:10D2500098E700BFB0EE429AB0EE41AAB0EE40BAF5
:10D2600090E700BFB0EE419AB0EE4BAAB0EE40BAE4
:10D2700088E700BFB0EE419AB0EE40AAB0EE42BAE5
:10D2800080E700BFB0EE4B9AB0EE40AAB0EE41BAD4
:10D2900078E700BF0000B4430000C842000000006F
:10D2A000B0B52DED028B88B3B0EE408A9FED230A16
:10D2B0009FED232AB4EE401AF1EE10FAF4EE420A82
:10D2C000C8BFB0EE401AF1EE10FAC8BFF0EE420A45
:10D2D000144600F5D272B0EE600AF0EE410AB0EEEC
:10D2E000481A0546FFF71EFF95F82400032813D0BF
:10D2F00005281DD12846B0EE480A00212246002408
:10D30000FDF730FF60B2BDEC028BB0BDFF2460B210
:10D31000BDEC028BB0BD00BF2846B0EE480A00212C
:10D320002246002401F094F860B2BDEC028BB0BD3F
:10D33000002460B2BDEC028BB0BD00BF0000C8424B
:10D340000000B4432DE9F04F83B0002800F0948131
:10D350008946002900F09081DDF830E0A2F1010853
:10D360005FEA0847C0F8489056D000EE10EA01EE98
:10D37000103AB8EE400AB8EE411A80EE010A08EB06
:10D38000880739F817701FFA88FC01EE107A4FEA07
:10D390008C0717FA88F7B8EE411A09EB4707A7F18F
:10D3A0000A05464620EE010A6F8901EE107AB8EEB2
:10D3B000411AB4EE410AF1EE10FA39DCB7B2012F8E
:10D3C0002AD02C8801EE104AB8EE411AB4EE410A78
:10D3D000F1EE10FA22DC022F1ED035F80A4C01EED5
:10D3E000104AB8EE411AB4EE410AF1EE10FA19DC17
:10D3F000032F11D035F8144C01EE104AB8EE411A43
:10D40000B4EE410AF1EE10FA10DC043EACF1040C6B
:10D410003404A5F12805C7D1164610E0ACF1010C83
:10D4200006E000BFACF1020C02E000BFACF1030C5F
:10D430000CF101064FF0FF37B2B217FA86F8D9F8AF
:10D440000240A0F8446000EE104A08EB880409EBA3
:10D450004404D4F80240B8EE400A80ED070A00EE1A
:10D46000104AB8EE400A80ED060A734538BF9E4662
:10D47000B9F80630B6B200EE103AB9F80830B8EE96
:10D48000400A01EE103A022EB8EE411AA0F822E04E
:10D49000C0F0DC80531E023A032A03F0030403D2D7
:10D4A0000123002C7BD1D1E0CDE9004623F003011C
:10D4B00009F130020024CDF8089034E002EE10AA01
:10D4C000B8EE422A30EE020A02EE109AB8EE422A74
:10D4D00031EE021A02EE108AB8EE422A30EE020A4B
:10D4E00002EE10BAB8EE422A31EE021A02EE106ACB
:10D4F000B8EE422A30EE020A02EE105AB8EE422A84
:10D5000031EE021A02EE10EAB8EE422A30EE020ABA
:10D5100002EE107AB8EE422A043431EE021AA14229
:10D5200002F1280236D052F8243C32F820AC32F80E
:10D530001E9C2BB152F82E3C13B932F8303C0384B8
:10D5400052F81A7C32F8168C32F814BC2FB152F80B
:10D55000247C17B932F8267C078452F8107C32F804
:10D560000C6C32F80A5C2FB152F81A7C17B932F8F9
:10D570001C7C078452F806CC32F802EC1788BCF108
:10D58000000F9BD052F8103C002B97D132F8123C80
:10D59000038493E7631C9DE85002002C56D003EBF4
:10D5A000830C09EB4C02D188178902EE101AD2F8CD
:10D5B000021004EE107AB8EE423AB8EE442A51B1A5
:10D5C000591E01EB810709EB4701D1F8021011B98F
:10D5D00039F81710018430EE030A012C31EE021ADB
:10D5E00034D0591C01EB810309EB4305E9882F89ED
:10D5F00002EE101AD5F8021004EE107AB8EE423A94
:10D60000B8EE442A29B1D2F8021011B939F81C1029
:10D61000018430EE030A022C31EE021A16D0518B2F
:10D6200002EE101A918BB8EE422A30EE020A02EE98
:10D63000101AD2F81610B8EE422A31EE021A29B1A9
:10D64000D5F8021011B939F81310018402EE106AEE
:10D65000B8EE422A80EE020A81EE021A9FED082AF5
:10D6600020EE020A21EE021A80ED040A80ED051A6E
:10D6700080ED0E0A80ED0F1A03B0BDE8F08F00BFF9
:10D6800017B7D1382DE9F04381B0DDE90898044699
:10D6900008461E4615460F46FCF79CFE0021C4E9CD
:10D6A0000011C4E90211C2B220463946102A88BFCF
:10D6B0000F22FCF747FE96E80F00A4F82490C4E977
:10D6C000045004F118000EC0C4F8288001B0BDE871
:10D6D000F0830000F0B581B000294FF0FF073FD084
:10D6E0001446EAB391ED000A0D46064628300021A3
:10D6F000002700F001FDBDEEC00A10EE100A95ED06
:10D70000010A208006F17400002100F0F5FCBDEE56
:10D71000C00A10EE100A95ED020A608006F1C00002
:10D72000002100F0E9FCBDEEC00A10EE100A95EDF4
:10D73000030AA08006F58670002100F0DDFCBDEE36
:10D74000C00A10EE100A95ED040AE08006F5AC70F0
:10D75000002100F0D1FCBDEEC00A10EE100A2081BD
:10D7600078B201B0F0BD000080F8B11180F8B021AE
:10D7700080ED080A704700002DE9F04782B00028CC
:10D780004FF0FF0451D0884600294ED08146D8F88A
:10D7900000000024C460846044600460D8F8006025
:10D7A0003046FCF717FEC2B248463146102A28BF61
:10D7B0001022FCF7C7FDB8F8040098F80610A9F885
:10D7C00018004FF07E5089F82410C9F8200061B38A
:10D7D000A9F14C0408F13005002600BFA5F1280787
:10D7E000384604F1740AFCF7F5FD02465046394606
:10D7F000FCF7A8FDA5F114030FCB04F19C0C8CE8F9
:10D800000F00296835F8042C35F8183CB8F8047076
:10D8100050460097FFF796FD99F8240001364C34E6
:10D82000864205F12C05D9D3002460B202B0BDE8D0
:10D83000F087000070B52DED048B86B0054647F2E9
:10D840004F50C3F6A860059041F686300E46C3F6E9
:10D85000A06004903078144600210528CDE902111B
:10D86000019100912AD0012848D008BB96ED030A07
:10D870003089694696ED018A0A1DFDF735FA307E3A
:10D8800005284DD0012873D090B996ED090A308C47
:10D890006A4696ED079A02F108010C32FDF724FA68
:10D8A00096ED0C0AB5EE400AF1EE10FA78D19DE043
:10D8B000FF2460B206B0BDEC048B70BD301D90EC4F
:10D8C000040AF4EE410AB0EE602AF1EE10FAB8BF95
:10D8D000B0EE412AB4EE612AF1EE10FAB8BFB0EE14
:10D8E000612A20EE028A04A96A462846B0EE480A58
:10D8F00000F0B6F8307E0528C4D111E096ED018A1B
:10D9000096ED020AD6ED030AD6ED051A318A6A466B
:10D910002846B0EE481AFFF705FC307E0528B1D145
:10D9200006F11C0090EC040AF4EE410AB0EE602A05
:10D93000F1EE10FAB8BFB0EE412AB4EE612AF1EE72
:10D9400010FAB8BFB0EE612A20EE029A684600F1E4
:10D95000080204A92846B0EE490A00F081F896EDC5
:10D960000C0AB5EE400AF1EE10FA19D13EE000BF04
:10D9700096ED079A96ED080AD6ED090AD6ED0B1A30
:10D98000318D684600F108022846B0EE491AFFF7CB
:10D99000C9FB96ED0C0AB5EE400AF1EE10FA25D05F
:10D9A000B5EE409AF1EE10FA20D09FED2C1AB4EEAD
:10D9B000410AF1EE10FA1FD0B5EE408AF1EE10FAEE
:10D9C0001AD09DED001A9DED023A9DED012A9DEDC4
:10D9D000034A33EE413A23EE003A33EE011A34EEB5
:10D9E000423A23EE003A33EE022A09E09DED001A96
:10D9F0009DED012A04E000BF9DED021A9DED032A72
:10DA000039EE483A95F8240023EE000A30EE080A71
:10DA1000032885ED691A85ED6A2A0DD0052817D1EE
:10DA20002846002122460024FDF79CFB60B206B088
:10DA3000BDEC048B70BD00BF2846002122460024A7
:10DA400000F006FD60B206B0BDEC048B70BD00BFF7
:10DA5000002460B206B0BDEC048B70BD00401C46D3
:10DA60002DE9F0412DED0A8B98B00D4606460FA822
:10DA700024219046B0EE61BAB0EE41AAB0EE608AC1
:10DA8000B0EE409AFCF785FC9FED6ECA0020B4EE24
:10DA90004C8AF1EE10FACDE90C00CDE90A000990AC
:10DAA000089021DD9FED690A9FED691A38EE000AA2
:10DAB00080EE010ADFED670A26F0E6FAB0EE408A52
:10DAC000B4EE4CAAF1EE10FA17DC9FED5F0A8AEE75
:10DAD00000AAB4EE4CBAF1EE10FA21DC9FED5A0A1E
:10DAE0008BEE00BA2AE000BF9FED570A88EE008A4D
:10DAF000B4EE4CAAF1EE10FAE7DD9FED540A9FED6B
:10DB0000541A3AEE000A80EE010ADFED520A26F0BE
:10DB1000BBFAB0EE40AAB4EE4CBAF1EE10FADDDD7D
:10DB20009FED4A0A9FED4A1A3BEE000A80EE010A79
:10DB3000DFED480A26F0A8FAB0EE40BA96ED041AD6
:10DB4000D6ED100A96F8B101B0EE490A06F12804A4
:10DB5000FEF77EF908AF2046394600F0CDFA96ED83
:10DB6000041AD6ED230A96F8B101B0EE490A06F17F
:10DB70007404FEF76DF907F10801204600F0BCFAC5
:10DB800096ED041AD6ED360A96F8B101B0EE490AC0
:10DB900006F1C004FEF75CF907F11001204600F021
:10DBA000ABFA08AB0FCB8DE80F00DDE90C10CDE927
:10DBB0000410D5E90010CDE906100FA86946FDF75D
:10DBC000CBF99DED0F0A9DED101A9DED112A2AEE5D
:10DBD000011A28EE000A9DED123A30EE010A2BEEF2
:10DBE000021A9DED132A31EE000A2AEE021A28EEDF
:10DBF000032A9DED143A32EE011A2BEE032A32EE7F
:10DC0000011A9DED162A9DED153A9DED174A2AEE53
:10DC1000022A28EE033A33EE022A2BEE043A33EEC0
:10DC2000022A30EE013A33EE022A80EE020A81EE39
:10DC3000021A88ED000A88ED011A18B0BDEC0A8BB3
:10DC4000BDE8F081E6AE253D52B84E41AE47613D9C
:10DC50003D0A873F9A991940B0B52DED028B88B0E7
:10DC60000C4647F24F51C3F6A861F5EE400A05464F
:10DC700000200191F1EE10FA4FF00001B5EE401ACC
:10DC80004FF000020790CDE90500CDE9030008BF81
:10DC90000121F1EE10FA08BF0122F5EE401A114001
:10DCA000F1EE10FA4FF0000208BF0122114241F6D6
:10DCB0008631C3F6A06100912ED1B5EE400AF1EE97
:10DCC00010FA29D0F4EE410AB0EE602AF1EE10FA13
:10DCD000B8BFB0EE412AB4EE612AF1EE10FAB8BF37
:10DCE000B0EE612A22EE008A05F5D2726946284616
:10DCF000B0EE480AFFF7B4FE95F82400032817D0C9
:10DD000005280BD103AA2846B0EE480A0021FDF7EA
:10DD100029FA24B906E000BFC5F8AC0114B103AD7F
:10DD20002FCD2FC4002008B0BDEC028BB0BD00BFCA
:10DD300003AA2846B0EE480A002100F089FB002C17
:10DD4000EDD1EFE7B0B52DED0A8B86B0054690F822
:10DD500024000C46052840F0B581B0EE40CA95ED90
:10DD6000100AB0EE41AA20EE0C0A8DED010A85EDF5
:10DD70001A0AB5EE400A95ED360AB0EE428A95EDE4
:10DD8000231A20EE0A2A95ED490A21EE203A20EEC8
:10DD9000211A95ED5C0AB0EE619AB0EE60BA20EE01
:10DDA000080AF1EE10FA8DED023A8DED032A8DEDA1
:10DDB000041A8DED050A85ED2D3A85ED402A85ED95
:10DDC000531A85ED660A14DCB5EE403AF1EE10FA0E
:10DDD0000FDCB5EE402AF1EE10FA0ADCB5EE401A7F
:10DDE000F1EE10FA05DCB5EE400AF1EE10FA40F360
:10DDF0006C8101A92846FEF7D7FEDDED010A95EDFD
:10DE0000041A95F8B101B0EE4C0AFEF721F8DDEDE9
:10DE1000020A95ED041A95F8B1018DED010AB0EEF4
:10DE20004B0AFEF715F8DDED030A95ED041A95F897
:10DE3000B1018DED020AB0EE4A0AFEF709F8DDEDF8
:10DE4000040A95ED041A95F8B1018DED030AB0EEC0
:10DE5000490AFDF7FDFFDDED050A95ED041A95F879
:10DE6000B1018DED040AB0EE480AFDF7F1FF9DED1A
:10DE7000011A95ED102A85ED1A1A81EE022A9FEDFE
:10DE80009D1AB0EE414AB5EE402AF1EE10FA20DDBF
:10DE9000B7EE004AB4EE442AF1EE10FA19DA95ED25
:10DEA000175A95ED166A22EE055A95ED154A22EE9F
:10DEB000055A22EE066A22EE066A25EE025A95ED12
:10DEC000143A35EE065A24EE022A32EE052A33EED3
:10DED000024A9DED025A95ED232AB5F84A0085EED7
:10DEE000023A02EE100AB8EE422A24EE022AB0EEFE
:10DEF000414A85ED132A85ED2D5AB5EE403AF1EEF3
:10DF000010FA20DDB7EE004AB4EE443AF1EE10FA12
:10DF100019DA95ED2A6A95ED297A23EE066A95EDD0
:10DF2000285A23EE066A23EE077A23EE077A26EEB6
:10DF3000036A95ED274A36EE076A25EE033A33EE7B
:10DF4000063A34EE034A9DED035A95ED363AB5F89C
:10DF5000960085EE033A06EE100AB8EE466A24EE05
:10DF6000064A85ED264A32EE042AB0EE414A85ED96
:10DF7000405AB5EE403AF1EE10FA20DDB7EE004A15
:10DF8000B4EE443AF1EE10FA19DA95ED3D6A95EDEA
:10DF90003C7A23EE066A95ED3B5A23EE066A23EEA1
:10DFA000077A23EE077A26EE036A95ED3A4A36EEB3
:10DFB000076A25EE033A33EE063A34EE034A9DED46
:10DFC000045A95ED493AB5F8E20085EE033A06EEBB
:10DFD000100AB8EE466A24EE064A85ED394A32EE5A
:10DFE000042AB0EE414A85ED535AB5EE403AF1EEBF
:10DFF00010FA20DDB7EE004AB4EE443AF1EE10FA22
:10E0000019DA95ED506A95ED4F7A23EE066A95ED93
:10E010004E5A23EE066A23EE077A23EE077A26EE9F
:10E02000036A95ED4D4A36EE076A25EE033A33EE64
:10E03000063A34EE034A95ED5C3AB5F82E0180EECF
:10E04000033A05EE100AB8EE455A24EE054A32EEC0
:10E05000042A85ED4C4A85ED660AB5EE403AF1EEAC
:10E0600010FA20DDB7EE001AB4EE413AF1EE10FAE4
:10E0700019DA95ED634A95ED625A23EE044A95ED5F
:10E08000611A23EE044A23EE055A23EE055A24EEC4
:10E09000034A95ED600A34EE054A21EE031A31EE8B
:10E0A000041A30EE011AB5F87A0100EE100AB8EE43
:10E0B000400A21EE000A85ED5F0A32EE000A85ED86
:10E0C000070A02E00020C5F8AC016CB1A86E206020
:10E0D000D5F8B4006060D5F80001A060D5F84C0117
:10E0E000E060D5F898012061002006B0BDEC0A8BF5
:10E0F000B0BD00BF00000000F0B5B0F844C09FED17
:10E10000AD1ABCF1000F00F052814CF6CD420CFB71
:10E1100002F2530D0127BCF1280F38BF07EB525311
:10E12000D0F848E0022BA3F101024AD30EF5C474E3
:10E1300000234FF4C875266802EE106AB8EE422A32
:10E14000B4EE402AF1EE10FA45DA43F00106B7B218
:10E15000BA4236DD07FB05E7D7F8887102EE107A80
:10E16000B8EE422AB4EE402AF1EE10FA32DA43F069
:10E170000206B7B2BA4224DD07FB05E7D7F888717B
:10E1800002EE107AB8EE422AB4EE402AF1EE10FA0E
:10E1900020DA43F00306B7B2BA4212DD07FB05E707
:10E1A000D7F8887102EE107AB8EE422AB4EE402A0F
:10E1B000F1EE10FA0EDA04339EB2B24204F5C864EE
:10E1C000B9DCD3B29B0053FA82F2D200ACF1010663
:10E1D00009E000BF3346DAB2920052FA83F32724F3
:10E1E000DA0004EBC30602EB82040EEB4403D3F81F
:10E1F000025002EE105AB8EE422AB4EE402AF1EE76
:10E2000010FA2BDA90ED061AB4EE401AF1EE10FA7D
:10E210005EDAACF10100B9B100EB80020EEB420214
:10E22000D388128900EE103A9FED631A02EE102A8D
:10E23000B8EE400AB8EE422A80EE010A82EE011AD8
:10E2400081ED000A81ED011A00EB80003EF810001C
:10E2500000EE100AB8EE400AF0BD00BF99B1D888B0
:10E260009FED553A02EE100A1889B8EE422A04EEE4
:10E27000100AB8EE444A82EE032A84EE033A81ED96
:10E28000002A81ED013A002A00F0918053F8080C31
:10E2900001EE100A291AB8EE411A30EE410A01EED9
:10E2A000101AB8EE411A80EE010A33F80A0C3EF853
:10E2B000141001EE100A091A02EE101AB8EEC22A62
:10E2C000B8EE411A20EE020A30EE010AF0BD00BF9E
:10E2D000B0B290424CD9821A04E000BF013A03F177
:10E2E0000A0345D0D3F8026001EE106AB8EE411A75
:10E2F000B4EE401AF1EE10FAF0DADD6802EE105AD0
:10E30000B8EE422AB4EE402AF1EE10FAE6DBA81B82
:10E3100030EE410A01EE100AB8EE411A80EE010A11
:10E3200018885A8901EE100A121A02EE102AB8EE65
:10E33000C22AB8EE411A20EE020A30EE011AB1B339
:10E34000188A9FED1D2A00EE100A588AB8EE400A7E
:10E3500003EE100A80EE020AB8EE433A83EE022A78
:10E3600081ED000AB0EE410A81ED012AF0BD00BF47
:10E3700000EB80003EF8102000EE102AB8EE401AA4
:10E38000A9B10EEB4000C288008900EE102A9FED73
:10E390000A2A03EE100AB8EE400AB8EE433A80EEBD
:10E3A000020A83EE022A81ED000A81ED012AB0EE15
:10E3B000410AF0BD0000000000401C460146BCEED2
:10E3C000C00A002081ED050A7047000001460020C8
:10E3D00081ED040A7047000080B57AB1C0ED690A8A
:10E3E00090F8241080ED6A1A032929D005292BD131
:10E3F00000211A46FCF7B6FE002080BD43F6681CDB
:10E40000C0F2050C2D2928BF2D213CF821200CEB52
:10E41000810101EE102A9FED0D2AB8EE411A4988BC
:10E4200021EE021A80ED691A01EE101AB8EE411AB7
:10E4300021EE021A90F8241080ED6A1A0329D5D132
:10E4400000211A4600F004F8002080BD17B7D1382B
:10E450002DE9F04F81B02DED088B84B050B39FEDC6
:10E460004B8AB5EE400AB7EE00AAF1EE10FAB0EE14
:10E47000481AB4EE4A0AB0EE4A9AC8BFB0EE401A43
:10E48000F1EE10FAD8BFB0EE419AB5EE409A0446CC
:10E49000F1EE10FA16D10020C4F8AC0122B1C2E9A5
:10E4A0000000C2E90200106104B0BDEC088B01B0AD
:10E4B000BDE8F08F012004B0BDEC088B01B0BDE8D1
:10E4C000F08F00BF94ED692A9FED31BA0192B4EE4E
:10E4D0004B2AF1EE10FAB8BFB0EE4B2A94ED6A0A5F
:10E4E00084ED692AB4EE4B0AF1EE10FAB8BFB0EE33
:10E4F0004B0A606984ED6A0A00EB400000EE100AE6
:10E5000004F12800B8EE400A039004F1600084EDA5
:10E510006B0A94ED0E0A94ED0F1A029094ED213AD5
:10E5200094ED224A94ED347A94ED356AD4E94701AA
:10E53000D4E95A2304F1740B04F1AC0604F1C007CA
:10E5400004F1F8054FF001084FF0000984ED180AB6
:10E5500084ED191A84ED2B3A84ED2C4A84ED3E7A31
:10E5600084ED3F6AC4E95101C4E964230AE000BFB5
:10E57000B4EE49AA4FF00008F1EE10FAB0EE49AA45
:10E5800000F0AA814FF0000A09E000BF000000007F
:10E5900017B7D138BAF1030FEAD80AF1010AD4ED5E
:10E5A0006B0A66EE031A67EE042A72EEE11A60EE59
:10E5B000872A60EE834A94ED6A5A64EE223A66EE48
:10E5C000245A61EE255A63EE813A61EE222A73EEF7
:10E5D000E53A62EE852A73EEE22A62EE203A63EEB5
:10E5E000865A65EE815A61EE244A75EEA22A64EEDF
:10E5F000854A64EE233A67EE015A74EEA22A60EE71
:10E60000064A63EE813A71EEE51A72EEE32A74EE81
:10E61000E53A27EE057A74EEA11A37EE237A62EE18
:10E62000063A62EE414A23EE011A37EE637A60EE53
:10E63000053A64EE205A20EE866A71EE210A24EE35
:10E64000000A70EEC00A31EE400A23EE053A30EEC1
:10E65000430A22EE042A32EE000A37EE637A33EEE2
:10E66000800A37EE647A34EE800A25EE877A25EE4A
:10E67000201A26EE000A82EE812A87EE013A80EE09
:10E68000010A5FEAC870C4F84C91C4F8989184ED0F
:10E690001A2A84ED2D3A84ED400A05D02046002147
:10E6A000FEF782FAB0EE408A94F8B00170B994EDAA
:10E6B000050A94ED081AB8EE400A21EE000AB4EEFD
:10E6C000408AF1EE10FAC8BFB0EE408A94ED041A09
:10E6D00094F8B101B0EE4A0AF0EE480AFDF7B8FB33
:10E6E00094ED2B5A94ED2C6A94ED3F7AD4ED3E0ACA
:10E6F00067EE051A60EE862A94ED194A72EEE11A69
:10E7000060EE202A60EE054A94ED6A2A66EE223A0F
:10E7100067EE245A94ED691A64EE255A63EE843A42
:10E7200064EE222A73EEE53A62EE822A73EEE22A62
:10E7300060EE013A63EE875A94ED183A65EE845A1A
:10E7400064EE244A75EEA22A64EE824A66EE233A0B
:10E7500060EE845A74EEA22A63EE074A63EE843AAE
:10E7600071EEE51A72EEE32A74EEE53A60EE820A83
:10E7700074EEA11A70EEA30A61EE073A61EE444A04
:10E7800025EE044A70EEE30A63EE023A74EE211AB3
:10E7900026EE033A71EEC31A34EE433A22EE214AD2
:10E7A00025EE022A33EE422A21EE061A31EE021A33
:10E7B00033EE811A70EEE30A34EE811A20EE072A56
:10E7C00070EEE40A66EE005A22EE011A65EEA00A27
:10E7D00081EE043A82EE841A80EE842A039802992C
:10E7E00084ED6B0A84ED403AB0EE410A84ED2D2AA7
:10E7F00084ED1A1AFFF780FC94ED2D0A5846314635
:10E80000FFF77AFC94ED400A38462946FFF774FC7E
:10E8100094ED2C4AD4ED2D0A94ED405A94ED3F6AC4
:10E8200094ED191AD4ED1A1A24EE052A60EE862A00
:10E8300061EE222A22EE012A94ED2B3A94ED3E7AE3
:10E8400032EE222A61EE862A62EE842A72EE822A53
:10E8500027EE052A63EE203A94ED180A24EE022AE8
:10E8600063EE863A61EE233A22EE012A32EE232A43
:10E8700060EE213A63EE863A63EE843A33EE822A02
:10E88000C2EE223A94ED692A72EE633AF0EEE33A70
:10E89000F4EE4B3AF1EE10FA3FF77CAE64EE063A36
:10E8A00070EE854A61EE233A71EEA44A63EEA43A13
:10E8B000C3EEA22AD4ED6A3A73EEE22AF0EEE22A1F
:10E8C000F4EE4B2AF1EE10FA7FF752AEBAF1040FD4
:10E8D000FFF463AE4CE600BF94F8B001012853D1B9
:10E8E0001FEDD60AF5EE401AF1EE10FAB0EE401A1E
:10E8F0000EDBF5EE400AF1EE10FA07DBB5EE405AFA
:10E90000F1EE10FAB0EE611A3EDA01E0B0EE611AF3
:10E91000F5EE400AF1EE10FAB5EE405A84ED1A1AFF
:10E92000B8BFF0EE400AC4ED2D0AF1EE10FAB8BF00
:10E93000B0EE405A31EE200A94ED041A94F8B10179
:10E9400030EE05AAB0EE490AF0EE480A84ED405ACE
:10E95000FDF77EFA94ED1A1A94ED2D2A94ED403AC3
:10E9600081EE0A1A82EE0A2A83EE0A3A84ED6B0AD5
:10E9700060EE011A60EE020A20EE035AC4ED1A1A84
:10E98000C4ED2D0A84ED405A94ED100A019981EEF0
:10E99000801A9FEDA00A0029B5EE401A00F03C81D4
:10E9A000F1EE10FAB0EE402A20DDB7EE002AB4EE08
:10E9B000421AF1EE10FA19DA94ED174A94ED165A4C
:10E9C00021EE044A94ED153A21EE044A21EE055A4F
:10E9D00021EE055A24EE014A94ED142A34EE054A3C
:10E9E00023EE011A31EE041A32EE012AB4F84A007D
:10E9F000B0EE403A01EE100AB8EE411A22EE011ACA
:10EA000084ED131A84ED071AC1ED001A94ED232A40
:10EA100094ED2D1A81EE022AB5EE402AF1EE10FA9D
:10EA200020DDB7EE003AB4EE432AF1EE10FA19DA1F
:10EA300094ED2A5A94ED296A22EE055A94ED284A5B
:10EA400022EE055A22EE066A22EE066A25EE025AE8
:10EA500094ED273A35EE065A24EE022A32EE052AC4
:10EA600033EE023AB4F8960002EE100AB8EE422AEB
:10EA700023EE022A94ED073A84ED262A33EE022A89
:10EA800084ED072A81ED011A94ED362A94ED401A9F
:10EA9000B0EE403A81EE022AB5EE402AF1EE10FACD
:10EAA00020DDB7EE003AB4EE432AF1EE10FA19DA9F
:10EAB00094ED3D5A94ED3C6A22EE055A94ED3B4AA2
:10EAC00022EE055A22EE066A22EE066A25EE025A68
:10EAD00094ED3A3A35EE065A24EE022A32EE052A31
:10EAE00033EE023AB4F8E20002EE100AB8EE422A1F
:10EAF00023EE022A94ED073A84ED392A33EE022AF6
:10EB000084ED072A81ED021A94ED492A94ED531AF7
:10EB1000B0EE403A81EE022AB5EE402AF1EE10FA4C
:10EB200020DDB7EE003AB4EE432AF1EE10FA19DA1E
:10EB300094ED505A94ED4F6A22EE055A94ED4E4AE8
:10EB400022EE055A22EE066A22EE066A25EE025AE7
:10EB500094ED4D3A35EE065A24EE022A32EE052A9D
:10EB600033EE023AB4F82E0102EE100AB8EE422A51
:10EB700023EE022A94ED073A84ED4C2A33EE022A62
:10EB800084ED072A81ED031A94ED5C2A94ED661A50
:10EB900081EE022AB5EE402AF1EE10FA20DDB7EE42
:10EBA000000AB4EE402AF1EE10FA19DA94ED634A45
:10EBB00094ED625A22EE044A94ED613A22EE044A40
:10EBC00022EE055A22EE055A24EE024A94ED600A1E
:10EBD00034EE054A23EE022A32EE042A30EE020A0F
:10EBE000B4F87A0102EE100AB8EE422A20EE020AC8
:10EBF00094ED072A84ED5F0A32EE000A84ED070ADD
:10EC000081ED041A002004B0BDEC088B01B0BDE812
:10EC1000F08F00BF00000000F1EE10FAB0EE403AB5
:10EC200020DDB7EE003AB4EE431AF1EE10FA19DA2D
:10EC300094ED174A94ED166A21EE044A94ED153AC4
:10EC400021EE044A21EE066A21EE066A24EE014A0C
:10EC500094ED142A34EE064A23EE011A31EE041A1A
:10EC600032EE013A94ED231AB4F84A0080EE812A7C
:10EC700001EE100AB8EE411A23EE011AB0EE403A46
:10EC800084ED131AB5EE402AF1EE10FA20DDB7EE4E
:10EC9000003AB4EE432AF1EE10FA19DA94ED2A6A3A
:10ECA00094ED297A22EE066A94ED284A22EE066A4D
:10ECB00022EE077A22EE077A26EE026A94ED273AD0
:10ECC00036EE076A24EE022A32EE062A33EE023AC4
:10ECD00094ED362AB4F8960085EE022A04EE100A66
:10ECE000B8EE444A23EE043A84ED263A31EE031A94
:10ECF000B0EE403AB5EE402AF1EE10FA20DDB7EE64
:10ED0000003AB4EE432AF1EE10FA19DA94ED3D5AC6
:10ED100094ED3C6A22EE055A94ED3B4A22EE055AE8
:10ED200022EE066A22EE066A25EE025A94ED3A3A7F
:10ED300035EE065A24EE022A32EE052A33EE023A66
:10ED400094ED492A94ED534AB4F8E20084EE022A85
:10ED500004EE100AB8EE444A23EE043A84ED393A40
:10ED600031EE031AB0EE403AB5EE402AF1EE10FA59
:10ED700020DDB7EE003AB4EE432AF1EE10FA19DACC
:10ED800094ED505A94ED4F6A22EE055A94ED4E4A96
:10ED900022EE055A22EE066A22EE066A25EE025A95
:10EDA00094ED4D3A35EE065A24EE022A32EE052A4B
:10EDB00033EE023A94ED5C2A94ED664AB4F82E01E3
:10EDC00084EE022A04EE100AB8EE444A23EE043A16
:10EDD00031EE031A84ED4C3AB5EE402AF1EE10FA0A
:10EDE00020DDB7EE000AB4EE402AF1EE10FA19DA8F
:10EDF00094ED634A94ED625A22EE044A94ED613A2E
:10EE000022EE044A22EE055A22EE055A24EE024A68
:10EE100094ED600A34EE054A23EE022A32EE042A0B
:10EE200030EE020AB4F87A0102EE100AB8EE422A75
:10EE300020EE020A84ED5F0A31EE000A002084ED24
:10EE4000070A04B0BDEC088B01B0BDE8F08F0000EC
:10EE50002DE9F04F81B02DED108B82B060B39FEDA6
:10EE6000EF8AB5EE400AB7EE009AF1EE10FAB0EE76
:10EE7000481AB4EE490AF0EE490AC8BFB0EE401A8B
:10EE8000F1EE10FAD8BFF0EE410AF5EE400A9846CE
:10EE90000446F1EE10FA13D10020B8F1000FC4F8C7
:10EEA000AC0100F03084C8E90000C8E90200C8F8ED
:10EEB000100000F028BC00BFFF2000F024BC00BF01
:10EEC00094ED0E0A94ED0F1A94ED213A42F210706F
:10EED00084ED180A84ED191A94ED222A84ED2B3A58
:10EEE000814238BF0846B0F5C86F98BF4FF4C8607C
:10EEF000A0F5C86080B2400841F27B414843400C15
:10EF000042F64D0200EB8001C0F2050202EB410324
:10EF10005B6852F8111005EE103AB2EE08BA04EE32
:10EF2000101A25EE0B6AB0EE08CA36EE0C6A34EE03
:10EF3000047AB1EE00DA36EE476A24EE0D4AB1EEFD
:10EF400008FA84EE06EA25EE0F5AC5EE068A6269D3
:10EF5000DFEDB3FA510004EE101A43F63821C0F287
:10EF6000050101EB8000D0ED009A04F12809F1EED3
:10EF700069AA04F1600A04F1740B04F1AC06B8EE5E
:10EF8000444A01276AEE8EBAF2EE02CAFFEE08DAB0
:10EF9000FBEE00EABAEE00AA84ED2C2A84ED6B4A5F
:10EFA000CDED010A0BE000BFDDED010A0027B4EE54
:10EFB000609AF1EE10FAB0EE609A00F0338100250D
:10EFC00003E000BF082DEFD8013521EE0B4A34EEE7
:10EFD0000C4A30EE005A34EE454A20EE0D5A21EE2E
:10EFE0000F6A85EE045A86EE044A22EE0B6A36EE6C
:10EFF0000C6A33EE037A36EE476A22EE0F7A63EE3E
:10F000000D0A87EE067A80EE866A21EE033AF8074B
:10F0100034EE477A35EE466A87EE066A38EEC47AF1
:10F0200024EE2A4A66EE050A30EE877A66EE280A52
:10F0300030EE844A69EE860A60EE8E1A31EEC44ADA
:10F0400020EE855A34EE454A36EE695A84EE054A7A
:10F050003BEE876A86EE055A24EE2D4A24EE2E6A90
:10F0600025EE0F7A37EE066A36EE0B6A25EE2C7A1D
:10F0700087EE066A25EE0C5A24EE0A7A35EE075A18
:10F0800034EE044A35EE0F5A84EE054A20EE025A59
:10F0900094ED6B7A35EE435A26EE411A62EE010A80
:10F0A00022EE072A84ED696A23EE043A20EE040A70
:10F0B00033EE203A30EE010A27EE433A25EE041AE9
:10F0C00022EE000A83EE013A80EE010A84ED6A4ADC
:10F0D00084ED1A3A84ED2D0A05D020460021FDF773
:10F0E00063FDB0EE408A94F8B00170B994ED050A62
:10F0F00094ED081AB8EE400A21EE000AB4EE408AF8
:10F10000F1EE10FAC8BFB0EE408A94ED041A94F8FC
:10F11000B101B0EE490AF0EE480AFCF799FE94ED11
:10F12000691A94ED183A94ED194A94ED2B5A94ED1E
:10F130002C6A94ED6A2A24EE055A23EE067A21EE13
:10F14000444A37EE457A24EE061A25EE025A22EE9C
:10F15000077A35EE011A23EE022A20EE411A20EE3C
:10F16000065A32EE042A81EE071A22EE052A82EEB2
:10F17000072A84ED6B0A48465146B0EE410A84EDF9
:10F180001A1A84ED2D2AFEF7B7FF94ED2D0A584682
:10F190003146FEF7B1FF94ED180A94ED1A4A94ED4A
:10F1A0002B3A94ED2D5A94ED191A94ED2C2A20EE59
:10F1B000046A23EE057A21EE077A26EE026A36EE1D
:10F1C000077A21EE056A64EE020A30EE866A87EE5F
:10F1D000067AD4ED690A30EEC77AB0EEC77AB4EE9B
:10F1E0006F7AF1EE10FA3FF7EDAE21EE027A74EE8F
:10F1F000050A27EE207A87EE066A94ED6A7A37EEE2
:10F20000466AB0EEC66AB4EE6F6AF1EE10FA7FF7A6
:10F21000CBAE092DFFF4D8AEC6E600BF000000005B
:10F2200017B7D138B5EE404AF1EE10FA06DA0020F1
:10F2300094ED6B5A1FED074AA0660AE0B5EE405AFE
:10F24000F1EE10FA07DA94ED6B4A1FED0C5A84EDDB
:10F250001A4A84ED2D5A94ED100AB8F1000F84EE8D
:10F26000001A1FED120AB5EE401A00F03581F1EEDA
:10F2700010FAB0EE402A20DDB7EE002AB4EE421AB2
:10F28000F1EE10FA19DA94ED175A94ED166A21EEA0
:10F29000055A94ED153A21EE055A21EE066A21EE43
:10F2A000066A25EE015A94ED142A35EE065A23EE2D
:10F2B000011A31EE051A32EE012AB4F84A00B0EE16
:10F2C000403A01EE100AB8EE411A22EE011A84ED1E
:10F2D000131A84ED071A88ED004A94ED232A94ED61
:10F2E0002D1A81EE022AB5EE402AF1EE10FA20DD49
:10F2F000B7EE003AB4EE432AF1EE10FA19DA94EDC3
:10F300002A5A94ED296A22EE055A94ED284A22EEF3
:10F31000055A22EE066A22EE066A25EE025A94ED9E
:10F32000273A35EE065A24EE022A32EE052A33EE4B
:10F33000023AB4F8960002EE100AB8EE422A23EE22
:10F34000022A94ED073A84ED262A33EE022A84ED50
:10F35000072A88ED011A94ED362A94ED401AB0EE92
:10F36000403A81EE022AB5EE402AF1EE10FA20DD95
:10F37000B7EE003AB4EE432AF1EE10FA19DA94ED42
:10F380003D5A94ED3C6A22EE055A94ED3B4A22EE3A
:10F39000055A22EE066A22EE066A25EE025A94ED1E
:10F3A0003A3A35EE065A24EE022A32EE052A33EEB8
:10F3B000023AB4F8E20002EE100AB8EE422A23EE56
:10F3C000022A94ED073A84ED392A33EE022A84EDBD
:10F3D000072A88ED021A94ED492A94ED531AB0EEEB
:10F3E000403A81EE022AB5EE402AF1EE10FA20DD15
:10F3F000B7EE003AB4EE432AF1EE10FA19DA94EDC2
:10F40000505A94ED4F6A22EE055A94ED4E4A22EE80
:10F41000055A22EE066A22EE066A25EE025A94ED9D
:10F420004D3A35EE065A24EE022A32EE052A33EE24
:10F43000023AB4F82E0102EE100AB8EE422A23EE88
:10F44000022A94ED073A84ED4C2A33EE022A84ED29
:10F45000072A88ED031A94ED5C2A94ED661A81EE72
:10F46000022AB5EE402AF1EE10FA20DDB7EE000ACE
:10F47000B4EE402AF1EE10FA19DA94ED634A94EDF5
:10F48000625A22EE044A94ED613A22EE044A22EED8
:10F49000055A22EE055A24EE024A94ED600A34EE33
:10F4A000054A23EE022A32EE042A30EE020AB4F8AC
:10F4B0007A0102EE100AB8EE422A20EE020A94ED1A
:10F4C000072A84ED5F0A32EE000A84ED070A88ED10
:10F4D000041A002017E100BFF1EE10FAB0EE403A36
:10F4E00020DDB7EE003AB4EE431AF1EE10FA19DA65
:10F4F00094ED174A94ED166A21EE044A94ED153AFC
:10F5000021EE044A21EE066A21EE066A24EE014A43
:10F5100094ED142A34EE064A23EE011A31EE041A51
:10F5200032EE013A94ED231AB4F84A0085EE012A2E
:10F5300001EE100AB8EE411A23EE011AB0EE403A7D
:10F5400084ED131AB5EE402AF1EE10FA20DDB7EE85
:10F55000003AB4EE432AF1EE10FA19DA94ED2A5A81
:10F5600094ED296A22EE055A94ED284A22EE055AB6
:10F5700022EE066A22EE066A25EE025A94ED273A3A
:10F5800035EE065A24EE022A32EE052A33EE023A0E
:10F5900094ED362A94ED404AB4F8960084EE022A9F
:10F5A00004EE100AB8EE444A23EE043A84ED263AFB
:10F5B00031EE031AB0EE403AB5EE402AF1EE10FA01
:10F5C00020DDB7EE003AB4EE432AF1EE10FA19DA74
:10F5D00094ED3D5A94ED3C6A22EE055A94ED3B4A77
:10F5E00022EE055A22EE066A22EE066A25EE025A3D
:10F5F00094ED3A3A35EE065A24EE022A32EE052A06
:10F6000033EE023A94ED492A94ED534AB4F8E200FD
:10F6100084EE022A04EE100AB8EE444A23EE043ABD
:10F6200084ED393A31EE031AB0EE403AB5EE402A95
:10F63000F1EE10FA20DDB7EE003AB4EE432AF1EE17
:10F6400010FA19DA94ED505A94ED4F6A22EE055AE9
:10F6500094ED4E4A22EE055A22EE066A22EE066A22
:10F6600025EE025A94ED4D3A35EE065A24EE022A62
:10F6700032EE052A33EE023A94ED5C2A94ED664AA6
:10F68000B4F82E0184EE022A04EE100AB8EE444AC1
:10F6900023EE043A31EE031A84ED4C3AB5EE402ADB
:10F6A000F1EE10FA20DDB7EE000AB4EE402AF1EEDA
:10F6B00010FA19DA94ED634A94ED625A22EE044A84
:10F6C00094ED613A22EE044A22EE055A22EE055AE2
:10F6D00024EE024A94ED600A34EE054A23EE022A33
:10F6E00032EE042A30EE020AB4F87A0102EE100A71
:10F6F000B8EE422A20EE020A84ED5F0A31EE000ADB
:10F70000002084ED070A40B202B0BDEC108B01B0BE
:10F71000BDE8F08F10B51EF05BFB2DF0A1FA0020C4
:10F7200010BD000010B500221146034805F0C8F9CD
:10F73000024800F089F910BD003005400004044083
:10F7400010B501220021034805F0BAF9024800F083
:10F750004FF910BD00300540000404407047704769
:10F7600070477047704770477047704770477047E1
:10F770007047704770477047704700002DE9F04FA1
:10F7800085B004460E4615469846DDF838A04FF081
:10F790000009CB463A4A07CA01AF07C704200090C8
:10F7A000B8F1000F68D000BF3648844205D0364813
:10F7B000844202D03548844200D104E040F207215F
:10F7C00033A005F0ABF800BF00BF0EB1012E00D191
:10F7D00004E04FF402712EA005F0A0F800BF00BFB6
:10F7E000BAF1000F02D0BAF1010F00D104E040F2EB
:10F7F000092127A005F092F800BF04F10C0000EBEE
:10F800008607143004902046C0F3872001A951F8E0
:10F8100020000540BAF1010F29D13868284338602B
:10F8200022E005F00100B8B100BF18F80B00052870
:10F8300000D304E040F2172115A005F06FF800BFD7
:10F8400018F80B10049800F80910B9F1100F03D242
:10F850000BF1010000F0FF0B6D08B9F1100F03D29E
:10F8600009F1010000F0FF09002DDAD102E038684B
:10F87000A843386000200090009805B0BDE8F08FE4
:10F8800048FE040000000440000404400008044056
:10F890002E2E5C6472697665725C7372635C686359
:10F8A0003332663461305F6164632E6300000000B0
:10F8B00010B500220621034805F002F9024800F0C5
:10F8C000C3F810BD003005400008044010B5012207
:10F8D0000621034805F0F4F8024800F089F810BD4D
:10F8E000003005400008044070B505460C4604266B
:10F8F000002C65D000BF3348854205D03248854290
:10F9000002D03248854200D104E04FF4A57130A006
:10F9100005F004F800BF00BF208840B1208801280E
:10F9200005D02088022802D02088032800D104E0D6
:10F9300040F24B1126A004F0F1FF00BF00BF608829
:10F94000202804D06088102801D0608800B904E025
:10F950004FF4A6711EA004F0E1FF00BF00BFA08815
:10F9600010B1A088402800D104E040F24D1118A049
:10F9700004F0D4FF00BF00BFE08810B1E088802809
:10F9800000D104E04FF4A77111A004F0C7FF00BF3D
:10F9900000BF208910B12089042800D104E040F282
:10F9A0004F110BA004F0BAFF00BF20886188084304
:10F9B000A1880843E188084368802089A880002640
:10F9C000304670BD000004400004044000080440BC
:10F9D0002E2E5C6472697665725C7372635C686318
:10F9E0003332663461305F6164632E63000000006F
:10F9F00010B5044600BF0948844205D00848844237
:10FA000002D00848844200D104E040F2935106A09D
:10FA100004F084FF00BF0120207010BD00000440EE
:10FA200000040440000804402E2E5C647269766570
:10FA3000725C7372635C68633332663461305F6139
:10FA400064632E630000000010B5044600BF09483F
:10FA5000844205D00848844202D00848844200D13C
:10FA600004E040F2A25106A004F058FF00BF0020BD
